{
  "_format": "hh-sol-artifact-1",
  "contractName": "Qredos",
  "sourceName": "contracts/Qredos.sol",
  "abi": [
    {
      "inputs": [
        {
          "internalType": "address",
          "name": "_paymentTokenAddress",
          "type": "address"
        },
        {
          "internalType": "address",
          "name": "_lendingPoolAddress",
          "type": "address"
        },
        {
          "internalType": "address",
          "name": "_QredosStoreAddress",
          "type": "address"
        }
      ],
      "stateMutability": "nonpayable",
      "type": "constructor"
    },
    {
      "anonymous": false,
      "inputs": [
        {
          "indexed": true,
          "internalType": "uint256",
          "name": "purchaseId",
          "type": "uint256"
        },
        {
          "indexed": true,
          "internalType": "uint256",
          "name": "liquidationId",
          "type": "uint256"
        },
        {
          "indexed": false,
          "internalType": "address",
          "name": "newOwner",
          "type": "address"
        }
      ],
      "name": "CompleteLiquidation",
      "type": "event"
    },
    {
      "anonymous": false,
      "inputs": [
        {
          "indexed": false,
          "internalType": "address",
          "name": "oldValue",
          "type": "address"
        },
        {
          "indexed": false,
          "internalType": "address",
          "name": "newValue",
          "type": "address"
        }
      ],
      "name": "LendingPoolAddressUpdated",
      "type": "event"
    },
    {
      "anonymous": false,
      "inputs": [
        {
          "indexed": true,
          "internalType": "uint256",
          "name": "loanId",
          "type": "uint256"
        },
        {
          "indexed": true,
          "internalType": "uint256",
          "name": "poolId",
          "type": "uint256"
        },
        {
          "indexed": true,
          "internalType": "address",
          "name": "borrower",
          "type": "address"
        },
        {
          "indexed": false,
          "internalType": "uint256",
          "name": "principal",
          "type": "uint256"
        }
      ],
      "name": "LoanCreated",
      "type": "event"
    },
    {
      "anonymous": false,
      "inputs": [
        {
          "indexed": true,
          "internalType": "uint256",
          "name": "loanRepaymentId",
          "type": "uint256"
        },
        {
          "indexed": true,
          "internalType": "uint256",
          "name": "loanId",
          "type": "uint256"
        },
        {
          "indexed": false,
          "internalType": "uint256",
          "name": "amount",
          "type": "uint256"
        },
        {
          "indexed": false,
          "internalType": "enum Schema.LoanRepaymentType",
          "name": "",
          "type": "uint8"
        }
      ],
      "name": "LoanRepaid",
      "type": "event"
    },
    {
      "anonymous": false,
      "inputs": [
        {
          "indexed": true,
          "internalType": "uint256",
          "name": "purchaseId",
          "type": "uint256"
        },
        {
          "indexed": false,
          "internalType": "address",
          "name": "claimer",
          "type": "address"
        }
      ],
      "name": "NFTClaimed",
      "type": "event"
    },
    {
      "anonymous": false,
      "inputs": [
        {
          "indexed": true,
          "internalType": "address",
          "name": "previousOwner",
          "type": "address"
        },
        {
          "indexed": true,
          "internalType": "address",
          "name": "newOwner",
          "type": "address"
        }
      ],
      "name": "OwnershipTransferred",
      "type": "event"
    },
    {
      "anonymous": false,
      "inputs": [
        {
          "indexed": false,
          "internalType": "address",
          "name": "oldValue",
          "type": "address"
        },
        {
          "indexed": false,
          "internalType": "address",
          "name": "newValue",
          "type": "address"
        }
      ],
      "name": "PaymentTokenAddressUpdated",
      "type": "event"
    },
    {
      "anonymous": false,
      "inputs": [
        {
          "indexed": true,
          "internalType": "uint256",
          "name": "poolId",
          "type": "uint256"
        },
        {
          "indexed": false,
          "internalType": "uint256",
          "name": "amountWithdrawn",
          "type": "uint256"
        }
      ],
      "name": "PoolClosed",
      "type": "event"
    },
    {
      "anonymous": false,
      "inputs": [
        {
          "indexed": true,
          "internalType": "uint256",
          "name": "poolId",
          "type": "uint256"
        },
        {
          "indexed": true,
          "internalType": "address",
          "name": "creator",
          "type": "address"
        }
      ],
      "name": "PoolCreated",
      "type": "event"
    },
    {
      "anonymous": false,
      "inputs": [
        {
          "indexed": true,
          "internalType": "uint256",
          "name": "poolId",
          "type": "uint256"
        },
        {
          "indexed": false,
          "internalType": "uint256",
          "name": "amount",
          "type": "uint256"
        }
      ],
      "name": "PoolFunded",
      "type": "event"
    },
    {
      "anonymous": false,
      "inputs": [],
      "name": "PoolRegistryContractDeployed",
      "type": "event"
    },
    {
      "anonymous": false,
      "inputs": [
        {
          "indexed": true,
          "internalType": "uint256",
          "name": "purchaseId",
          "type": "uint256"
        }
      ],
      "name": "PurchaseCompleted",
      "type": "event"
    },
    {
      "anonymous": false,
      "inputs": [
        {
          "indexed": true,
          "internalType": "address",
          "name": "userAddress",
          "type": "address"
        },
        {
          "indexed": true,
          "internalType": "uint256",
          "name": "purchaseId",
          "type": "uint256"
        },
        {
          "indexed": false,
          "internalType": "uint256",
          "name": "downPayment",
          "type": "uint256"
        },
        {
          "indexed": false,
          "internalType": "uint16",
          "name": "downPaymentPercentage",
          "type": "uint16"
        }
      ],
      "name": "PurchaseCreated",
      "type": "event"
    },
    {
      "anonymous": false,
      "inputs": [
        {
          "indexed": false,
          "internalType": "address",
          "name": "paymentTokenAddress",
          "type": "address"
        },
        {
          "indexed": false,
          "internalType": "address",
          "name": "lendingPoolAddress",
          "type": "address"
        }
      ],
      "name": "QredosContractDeployed",
      "type": "event"
    },
    {
      "anonymous": false,
      "inputs": [
        {
          "indexed": true,
          "internalType": "uint256",
          "name": "purchaseId",
          "type": "uint256"
        },
        {
          "indexed": false,
          "internalType": "address",
          "name": "borrowerAddress",
          "type": "address"
        },
        {
          "indexed": false,
          "internalType": "uint256",
          "name": "refundAmount",
          "type": "uint256"
        }
      ],
      "name": "RefundBorrower",
      "type": "event"
    },
    {
      "anonymous": false,
      "inputs": [
        {
          "indexed": true,
          "internalType": "uint256",
          "name": "purchaseId",
          "type": "uint256"
        },
        {
          "indexed": false,
          "internalType": "uint256",
          "name": "discountAmount",
          "type": "uint256"
        },
        {
          "indexed": true,
          "internalType": "uint256",
          "name": "liquidationId",
          "type": "uint256"
        }
      ],
      "name": "StartLiquidation",
      "type": "event"
    },
    {
      "inputs": [
        {
          "internalType": "uint256",
          "name": "purchaseId",
          "type": "uint256"
        },
        {
          "internalType": "uint256",
          "name": "liquidationId",
          "type": "uint256"
        }
      ],
      "name": "_calcBorrowerRefundAmount",
      "outputs": [
        {
          "internalType": "uint256",
          "name": "",
          "type": "uint256"
        }
      ],
      "stateMutability": "view",
      "type": "function"
    },
    {
      "inputs": [
        {
          "internalType": "uint256",
          "name": "purchaseId",
          "type": "uint256"
        },
        {
          "internalType": "uint256",
          "name": "poolId",
          "type": "uint256"
        }
      ],
      "name": "claimNft",
      "outputs": [],
      "stateMutability": "nonpayable",
      "type": "function"
    },
    {
      "inputs": [
        {
          "internalType": "uint256",
          "name": "poolId",
          "type": "uint256"
        },
        {
          "internalType": "address",
          "name": "reciever",
          "type": "address"
        }
      ],
      "name": "closePool",
      "outputs": [],
      "stateMutability": "nonpayable",
      "type": "function"
    },
    {
      "inputs": [
        {
          "internalType": "uint256",
          "name": "liquidationId",
          "type": "uint256"
        },
        {
          "internalType": "address",
          "name": "borrowerAddress",
          "type": "address"
        }
      ],
      "name": "completeLiquidation",
      "outputs": [],
      "stateMutability": "nonpayable",
      "type": "function"
    },
    {
      "inputs": [
        {
          "internalType": "uint256",
          "name": "purchaseId",
          "type": "uint256"
        }
      ],
      "name": "completeNFTPurchase",
      "outputs": [],
      "stateMutability": "nonpayable",
      "type": "function"
    },
    {
      "inputs": [
        {
          "internalType": "uint256",
          "name": "_amount",
          "type": "uint256"
        },
        {
          "internalType": "uint16",
          "name": "_paymentCycle",
          "type": "uint16"
        },
        {
          "internalType": "uint16",
          "name": "_APR",
          "type": "uint16"
        },
        {
          "internalType": "uint256",
          "name": "_durationInSecs",
          "type": "uint256"
        },
        {
          "internalType": "uint16",
          "name": "_durationInMonths",
          "type": "uint16"
        },
        {
          "internalType": "address",
          "name": "_creator",
          "type": "address"
        }
      ],
      "name": "createPool",
      "outputs": [],
      "stateMutability": "nonpayable",
      "type": "function"
    },
    {
      "inputs": [],
      "name": "forwardAllFunds",
      "outputs": [],
      "stateMutability": "nonpayable",
      "type": "function"
    },
    {
      "inputs": [
        {
          "internalType": "uint256",
          "name": "poolId",
          "type": "uint256"
        },
        {
          "internalType": "uint256",
          "name": "amount",
          "type": "uint256"
        }
      ],
      "name": "fundPool",
      "outputs": [],
      "stateMutability": "nonpayable",
      "type": "function"
    },
    {
      "inputs": [
        {
          "internalType": "uint256",
          "name": "poolId",
          "type": "uint256"
        }
      ],
      "name": "getPoolBalance",
      "outputs": [
        {
          "internalType": "uint256",
          "name": "",
          "type": "uint256"
        }
      ],
      "stateMutability": "view",
      "type": "function"
    },
    {
      "inputs": [],
      "name": "isPaused",
      "outputs": [
        {
          "internalType": "bool",
          "name": "",
          "type": "bool"
        }
      ],
      "stateMutability": "view",
      "type": "function"
    },
    {
      "inputs": [],
      "name": "lendingPoolAddress",
      "outputs": [
        {
          "internalType": "address",
          "name": "",
          "type": "address"
        }
      ],
      "stateMutability": "view",
      "type": "function"
    },
    {
      "inputs": [
        {
          "internalType": "address",
          "name": "",
          "type": "address"
        },
        {
          "internalType": "address",
          "name": "",
          "type": "address"
        },
        {
          "internalType": "uint256",
          "name": "",
          "type": "uint256"
        },
        {
          "internalType": "bytes",
          "name": "",
          "type": "bytes"
        }
      ],
      "name": "onERC721Received",
      "outputs": [
        {
          "internalType": "bytes4",
          "name": "",
          "type": "bytes4"
        }
      ],
      "stateMutability": "pure",
      "type": "function"
    },
    {
      "inputs": [],
      "name": "owner",
      "outputs": [
        {
          "internalType": "address",
          "name": "",
          "type": "address"
        }
      ],
      "stateMutability": "view",
      "type": "function"
    },
    {
      "inputs": [],
      "name": "paymentTokenAddress",
      "outputs": [
        {
          "internalType": "address",
          "name": "",
          "type": "address"
        }
      ],
      "stateMutability": "view",
      "type": "function"
    },
    {
      "inputs": [
        {
          "internalType": "address",
          "name": "tokenAddress",
          "type": "address"
        },
        {
          "internalType": "uint256",
          "name": "tokenId",
          "type": "uint256"
        },
        {
          "internalType": "uint256",
          "name": "downPaymentAmount",
          "type": "uint256"
        },
        {
          "internalType": "uint256",
          "name": "principal",
          "type": "uint256"
        },
        {
          "internalType": "uint256",
          "name": "poolId",
          "type": "uint256"
        }
      ],
      "name": "purchaseNFT",
      "outputs": [],
      "stateMutability": "nonpayable",
      "type": "function"
    },
    {
      "inputs": [],
      "name": "qredosStoreAddress",
      "outputs": [
        {
          "internalType": "address",
          "name": "",
          "type": "address"
        }
      ],
      "stateMutability": "view",
      "type": "function"
    },
    {
      "inputs": [
        {
          "internalType": "uint256",
          "name": "purchaseId",
          "type": "uint256"
        },
        {
          "internalType": "uint256",
          "name": "liquidationId",
          "type": "uint256"
        }
      ],
      "name": "refundBorrower",
      "outputs": [],
      "stateMutability": "nonpayable",
      "type": "function"
    },
    {
      "inputs": [],
      "name": "renounceOwnership",
      "outputs": [],
      "stateMutability": "nonpayable",
      "type": "function"
    },
    {
      "inputs": [
        {
          "internalType": "uint256",
          "name": "purchaseId",
          "type": "uint256"
        },
        {
          "internalType": "enum Schema.LoanRepaymentType",
          "name": "repaymentType",
          "type": "uint8"
        },
        {
          "internalType": "uint256",
          "name": "poolId",
          "type": "uint256"
        }
      ],
      "name": "repayLoan",
      "outputs": [],
      "stateMutability": "nonpayable",
      "type": "function"
    },
    {
      "inputs": [
        {
          "internalType": "uint256",
          "name": "purchaseId",
          "type": "uint256"
        },
        {
          "internalType": "uint256",
          "name": "discountAmount",
          "type": "uint256"
        },
        {
          "internalType": "uint256",
          "name": "currentNftPrice",
          "type": "uint256"
        },
        {
          "internalType": "address",
          "name": "borrowerAddress",
          "type": "address"
        }
      ],
      "name": "startLiquidation",
      "outputs": [],
      "stateMutability": "nonpayable",
      "type": "function"
    },
    {
      "inputs": [],
      "name": "toggleIsPaused",
      "outputs": [],
      "stateMutability": "nonpayable",
      "type": "function"
    },
    {
      "inputs": [
        {
          "internalType": "address",
          "name": "newOwner",
          "type": "address"
        }
      ],
      "name": "transferOwnership",
      "outputs": [],
      "stateMutability": "nonpayable",
      "type": "function"
    }
  ],
  "bytecode": "0x60806040523480156200001157600080fd5b5060405162006e4638038062006e46833981810160405281019062000037919062000241565b620000576200004b6200015e60201b60201c565b6200016660201b60201c565b82600160006101000a81548173ffffffffffffffffffffffffffffffffffffffff021916908373ffffffffffffffffffffffffffffffffffffffff16021790555081600260006101000a81548173ffffffffffffffffffffffffffffffffffffffff021916908373ffffffffffffffffffffffffffffffffffffffff16021790555080600360006101000a81548173ffffffffffffffffffffffffffffffffffffffff021916908373ffffffffffffffffffffffffffffffffffffffff1602179055507f65347c9102e9bd382095627b9d28b5a60049293b5b7158efee03d63beb820e4d83836040516200014d929190620002a8565b60405180910390a150505062000323565b600033905090565b60008060009054906101000a900473ffffffffffffffffffffffffffffffffffffffff169050816000806101000a81548173ffffffffffffffffffffffffffffffffffffffff021916908373ffffffffffffffffffffffffffffffffffffffff1602179055508173ffffffffffffffffffffffffffffffffffffffff168173ffffffffffffffffffffffffffffffffffffffff167f8be0079c531659141344cd1fd0a4f28419497f9722a3daafe3b4186f6b6457e060405160405180910390a35050565b6000815190506200023b8162000309565b92915050565b6000806000606084860312156200025757600080fd5b600062000267868287016200022a565b93505060206200027a868287016200022a565b92505060406200028d868287016200022a565b9150509250925092565b620002a281620002d5565b82525050565b6000604082019050620002bf600083018562000297565b620002ce602083018462000297565b9392505050565b6000620002e282620002e9565b9050919050565b600073ffffffffffffffffffffffffffffffffffffffff82169050919050565b6200031481620002d5565b81146200032057600080fd5b50565b616b1380620003336000396000f3fe60806040523480156200001157600080fd5b5060043610620001605760003560e01c80639c0b7b5c11620000c9578063da2488cd1162000087578063da2488cd146200035d578063da297df2146200037d578063ed1375d5146200039d578063f2fde38b14620003d3578063f9613d7f14620003f3578063ff9311a014620003ff5762000160565b80639c0b7b5c14620002b75780639d5e2eeb14620002d7578063afb18fe714620002f7578063b187bd261462000319578063d3ae26b3146200033b5762000160565b80636279ce6c11620001235780636279ce6c146200021d57806370a883ca1462000229578063715018a614620002495780637d0812b9146200025557806383b1877614620002755780638da5cb5b14620002955762000160565b8063150b7a0214620001655780632280b3d2146200019b57806325e235ff14620001bd578063553c69b414620001dd5780635acd6fac14620001fd575b600080fd5b6200018360048036038101906200017d919062004444565b62000435565b60405162000192919062004fb6565b60405180910390f35b620001a56200044a565b604051620001b4919062004dda565b60405180910390f35b620001db6004803603810190620001d59190620047de565b62000470565b005b620001fb6004803603810190620001f5919062004748565b62000888565b005b6200021b6004803603810190620002159190620047de565b62000aa7565b005b6200022762000cba565b005b620002476004803603810190620002419190620046f2565b62000e35565b005b6200025362001612565b005b6200027360048036038101906200026d9190620046b1565b6200162a565b005b6200029360048036038101906200028d919062004659565b62001b31565b005b6200029f62002074565b604051620002ae919062004dda565b60405180910390f35b620002d56004803603810190620002cf9190620047de565b6200209d565b005b620002f56004803603810190620002ef91906200481f565b62002348565b005b6200030162002503565b60405162000310919062004dda565b60405180910390f35b6200032362002529565b60405162000332919062004f99565b60405180910390f35b620003456200253c565b60405162000354919062004dda565b60405180910390f35b6200037b6004803603810190620003759190620046b1565b62002562565b005b6200039b6004803603810190620003959190620044ce565b620028e9565b005b620003bb6004803603810190620003b5919062004659565b62002ffc565b604051620003ca919062005267565b60405180910390f35b620003f16004803603810190620003eb9190620043ec565b620030b6565b005b620003fd62003141565b005b6200041d6004803603810190620004179190620047de565b62003177565b6040516200042c919062005267565b60405180910390f35b600063150b7a0260e01b905095945050505050565b600360009054906101000a900473ffffffffffffffffffffffffffffffffffffffff1681565b600360149054906101000a900460ff1615620004c3576040517f08c379a0000000000000000000000000000000000000000000000000000000008152600401620004ba906200514b565b60405180910390fd5b6000600360009054906101000a900473ffffffffffffffffffffffffffffffffffffffff1673ffffffffffffffffffffffffffffffffffffffff1663dfd7f4ae33856040518363ffffffff1660e01b81526004016200052492919062004e34565b60e06040518083038186803b1580156200053d57600080fd5b505afa15801562000552573d6000803e3d6000fd5b505050506040513d601f19601f8201168201806040525081019062000578919062004601565b90506000600260009054906101000a900473ffffffffffffffffffffffffffffffffffffffff1673ffffffffffffffffffffffffffffffffffffffff1663d22368676040518163ffffffff1660e01b815260040160206040518083038186803b158015620005e557600080fd5b505afa158015620005fa573d6000803e3d6000fd5b505050506040513d601f19601f8201168201806040525081019062000620919062004418565b73ffffffffffffffffffffffffffffffffffffffff16636bac63728484600001516040518363ffffffff1660e01b81526004016200066092919062005378565b60c06040518083038186803b1580156200067957600080fd5b505afa1580156200068e573d6000803e3d6000fd5b505050506040513d601f19601f82011682018060405250810190620006b49190620045a8565b9050600180811115620006f0577f4e487b7100000000000000000000000000000000000000000000000000000000600052602160045260246000fd5b816080015160018111156200072e577f4e487b7100000000000000000000000000000000000000000000000000000000600052602160045260246000fd5b1462000771576040517f08c379a00000000000000000000000000000000000000000000000000000000081526004016200076890620050c3565b60405180910390fd5b816040015173ffffffffffffffffffffffffffffffffffffffff16631e83409a336040518263ffffffff1660e01b8152600401620007b0919062004dda565b602060405180830381600087803b158015620007cb57600080fd5b505af1158015620007e0573d6000803e3d6000fd5b505050506040513d601f19601f8201168201806040525081019062000806919062004550565b62000848576040517f08c379a00000000000000000000000000000000000000000000000000000000081526004016200083f906200518f565b60405180910390fd5b837fec5f0dee1fc3c7beab746dbd5883eee3f1c9bc07fe02dd318c553c5243f52fea336040516200087a919062004dda565b60405180910390a250505050565b600360149054906101000a900460ff1615620008db576040517f08c379a0000000000000000000000000000000000000000000000000000000008152600401620008d2906200514b565b60405180910390fd5b6200092c333088600160009054906101000a900473ffffffffffffffffffffffffffffffffffffffff1673ffffffffffffffffffffffffffffffffffffffff16620039ac909392919063ffffffff16565b600160009054906101000a900473ffffffffffffffffffffffffffffffffffffffff1673ffffffffffffffffffffffffffffffffffffffff1663095ea7b3600260009054906101000a900473ffffffffffffffffffffffffffffffffffffffff16886040518363ffffffff1660e01b8152600401620009ad92919062004e34565b602060405180830381600087803b158015620009c857600080fd5b505af1158015620009dd573d6000803e3d6000fd5b505050506040513d601f19601f8201168201806040525081019062000a03919062004550565b50600260009054906101000a900473ffffffffffffffffffffffffffffffffffffffff1673ffffffffffffffffffffffffffffffffffffffff1663553c69b48787878787876040518763ffffffff1660e01b815260040162000a6b969594939291906200530b565b600060405180830381600087803b15801562000a8657600080fd5b505af115801562000a9b573d6000803e3d6000fd5b50505050505050505050565b600360149054906101000a900460ff161562000afa576040517f08c379a000000000000000000000000000000000000000000000000000000000815260040162000af1906200514b565b60405180910390fd5b62000b4b333083600160009054906101000a900473ffffffffffffffffffffffffffffffffffffffff1673ffffffffffffffffffffffffffffffffffffffff16620039ac909392919063ffffffff16565b600160009054906101000a900473ffffffffffffffffffffffffffffffffffffffff1673ffffffffffffffffffffffffffffffffffffffff1663095ea7b3600260009054906101000a900473ffffffffffffffffffffffffffffffffffffffff16836040518363ffffffff1660e01b815260040162000bcc92919062004e34565b602060405180830381600087803b15801562000be757600080fd5b505af115801562000bfc573d6000803e3d6000fd5b505050506040513d601f19601f8201168201806040525081019062000c22919062004550565b50600260009054906101000a900473ffffffffffffffffffffffffffffffffffffffff1673ffffffffffffffffffffffffffffffffffffffff16635acd6fac83836040518363ffffffff1660e01b815260040162000c8292919062005378565b600060405180830381600087803b15801562000c9d57600080fd5b505af115801562000cb2573d6000803e3d6000fd5b505050505050565b62000cc462003a39565b600160009054906101000a900473ffffffffffffffffffffffffffffffffffffffff1673ffffffffffffffffffffffffffffffffffffffff1663a9059cbb62000d0c62002074565b600160009054906101000a900473ffffffffffffffffffffffffffffffffffffffff1673ffffffffffffffffffffffffffffffffffffffff166370a08231306040518263ffffffff1660e01b815260040162000d69919062004dda565b60206040518083038186803b15801562000d8257600080fd5b505afa15801562000d97573d6000803e3d6000fd5b505050506040513d601f19601f8201168201806040525081019062000dbd919062004685565b6040518363ffffffff1660e01b815260040162000ddc92919062004e34565b602060405180830381600087803b15801562000df757600080fd5b505af115801562000e0c573d6000803e3d6000fd5b505050506040513d601f19601f8201168201806040525081019062000e32919062004550565b50565b600360149054906101000a900460ff161562000e88576040517f08c379a000000000000000000000000000000000000000000000000000000000815260040162000e7f906200514b565b60405180910390fd5b6000600360009054906101000a900473ffffffffffffffffffffffffffffffffffffffff1673ffffffffffffffffffffffffffffffffffffffff1663dfd7f4ae33866040518363ffffffff1660e01b815260040162000ee992919062004e34565b60e06040518083038186803b15801562000f0257600080fd5b505afa15801562000f17573d6000803e3d6000fd5b505050506040513d601f19601f8201168201806040525081019062000f3d919062004601565b90506000600181111562000f7a577f4e487b7100000000000000000000000000000000000000000000000000000000600052602160045260246000fd5b83600181111562000fb4577f4e487b7100000000000000000000000000000000000000000000000000000000600052602160045260246000fd5b1415620012a8576000600260009054906101000a900473ffffffffffffffffffffffffffffffffffffffff1673ffffffffffffffffffffffffffffffffffffffff1663d30f96cb8360000151856040518363ffffffff1660e01b81526004016200102092919062005378565b60206040518083038186803b1580156200103957600080fd5b505afa1580156200104e573d6000803e3d6000fd5b505050506040513d601f19601f8201168201806040525081019062001074919062004685565b9050620010c7333083600160009054906101000a900473ffffffffffffffffffffffffffffffffffffffff1673ffffffffffffffffffffffffffffffffffffffff16620039ac909392919063ffffffff16565b600160009054906101000a900473ffffffffffffffffffffffffffffffffffffffff1673ffffffffffffffffffffffffffffffffffffffff1663095ea7b3600260009054906101000a900473ffffffffffffffffffffffffffffffffffffffff16836040518363ffffffff1660e01b81526004016200114892919062004e34565b602060405180830381600087803b1580156200116357600080fd5b505af115801562001178573d6000803e3d6000fd5b505050506040513d601f19601f820116820180604052508101906200119e919062004550565b506000600260009054906101000a900473ffffffffffffffffffffffffffffffffffffffff1673ffffffffffffffffffffffffffffffffffffffff1663c60bffc7846000015184876040518463ffffffff1660e01b81526004016200120693929190620053e2565b602060405180830381600087803b1580156200122157600080fd5b505af115801562001236573d6000803e3d6000fd5b505050506040513d601f19601f820116820180604052508101906200125c919062004685565b90508260000151817f5f3b53e81cd16b078bd648ad759c36c3b66dee302039ba48d4ad37de61dba7bb84600060405162001298929190620052b1565b60405180910390a350506200160c565b600180811115620012e2577f4e487b7100000000000000000000000000000000000000000000000000000000600052602160045260246000fd5b8360018111156200131c577f4e487b7100000000000000000000000000000000000000000000000000000000600052602160045260246000fd5b14156200160b576000600260009054906101000a900473ffffffffffffffffffffffffffffffffffffffff1673ffffffffffffffffffffffffffffffffffffffff16636cd5ffa88360000151856040518363ffffffff1660e01b81526004016200138892919062005378565b60206040518083038186803b158015620013a157600080fd5b505afa158015620013b6573d6000803e3d6000fd5b505050506040513d601f19601f82011682018060405250810190620013dc919062004685565b90506200142f333083600160009054906101000a900473ffffffffffffffffffffffffffffffffffffffff1673ffffffffffffffffffffffffffffffffffffffff16620039ac909392919063ffffffff16565b600160009054906101000a900473ffffffffffffffffffffffffffffffffffffffff1673ffffffffffffffffffffffffffffffffffffffff1663095ea7b3600260009054906101000a900473ffffffffffffffffffffffffffffffffffffffff16836040518363ffffffff1660e01b8152600401620014b092919062004e34565b602060405180830381600087803b158015620014cb57600080fd5b505af1158015620014e0573d6000803e3d6000fd5b505050506040513d601f19601f8201168201806040525081019062001506919062004550565b506000600260009054906101000a900473ffffffffffffffffffffffffffffffffffffffff1673ffffffffffffffffffffffffffffffffffffffff166399f6bccb846000015184876040518463ffffffff1660e01b81526004016200156e93929190620053e2565b602060405180830381600087803b1580156200158957600080fd5b505af11580156200159e573d6000803e3d6000fd5b505050506040513d601f19601f82011682018060405250810190620015c4919062004685565b90508260000151817f5f3b53e81cd16b078bd648ad759c36c3b66dee302039ba48d4ad37de61dba7bb84600160405162001600929190620052b1565b60405180910390a350505b5b50505050565b6200161c62003a39565b62001628600062003abe565b565b600360149054906101000a900460ff16156200167d576040517f08c379a000000000000000000000000000000000000000000000000000000000815260040162001674906200514b565b60405180910390fd5b6000600360009054906101000a900473ffffffffffffffffffffffffffffffffffffffff1673ffffffffffffffffffffffffffffffffffffffff1663500db2a6846040518263ffffffff1660e01b8152600401620016dc919062005267565b60a06040518083038186803b158015620016f557600080fd5b505afa1580156200170a573d6000803e3d6000fd5b505050506040513d601f19601f820116820180604052508101906200173091906200457c565b90506000600360009054906101000a900473ffffffffffffffffffffffffffffffffffffffff1673ffffffffffffffffffffffffffffffffffffffff1663dfd7f4ae8484600001516040518363ffffffff1660e01b81526004016200179792919062004e34565b60e06040518083038186803b158015620017b057600080fd5b505afa158015620017c5573d6000803e3d6000fd5b505050506040513d601f19601f82011682018060405250810190620017eb919062004601565b90506200184233308460400151600160009054906101000a900473ffffffffffffffffffffffffffffffffffffffff1673ffffffffffffffffffffffffffffffffffffffff16620039ac909392919063ffffffff16565b620018b7600260009054906101000a900473ffffffffffffffffffffffffffffffffffffffff168360400151600160009054906101000a900473ffffffffffffffffffffffffffffffffffffffff1673ffffffffffffffffffffffffffffffffffffffff1662003b829092919063ffffffff16565b806040015173ffffffffffffffffffffffffffffffffffffffff16631e83409a336040518263ffffffff1660e01b8152600401620018f6919062004dda565b602060405180830381600087803b1580156200191157600080fd5b505af115801562001926573d6000803e3d6000fd5b505050506040513d601f19601f820116820180604052508101906200194c919062004550565b6200198e576040517f08c379a00000000000000000000000000000000000000000000000000000000081526004016200198590620051f5565b60405180910390fd5b600360009054906101000a900473ffffffffffffffffffffffffffffffffffffffff1673ffffffffffffffffffffffffffffffffffffffff16631fa400068360000151846040015187600187602001516040518663ffffffff1660e01b815260040162001a009594939291906200541f565b600060405180830381600087803b15801562001a1b57600080fd5b505af115801562001a30573d6000803e3d6000fd5b50505050600360009054906101000a900473ffffffffffffffffffffffffffffffffffffffff1673ffffffffffffffffffffffffffffffffffffffff166341eb24b18484600001518460000151856020015186604001518760600151886080015160036040518963ffffffff1660e01b815260040162001ab898979695949392919062004f0b565b600060405180830381600087803b15801562001ad357600080fd5b505af115801562001ae8573d6000803e3d6000fd5b505050508382600001517f10f0eb5bec4048bc2147c3eff0d6bb1ea88c96d7daf1e0ec6174e60f3d2d6b363360405162001b23919062004dda565b60405180910390a350505050565b600360149054906101000a900460ff161562001b84576040517f08c379a000000000000000000000000000000000000000000000000000000000815260040162001b7b906200514b565b60405180910390fd5b6000600360009054906101000a900473ffffffffffffffffffffffffffffffffffffffff1673ffffffffffffffffffffffffffffffffffffffff1663dfd7f4ae33846040518363ffffffff1660e01b815260040162001be592919062004e34565b60e06040518083038186803b15801562001bfe57600080fd5b505afa15801562001c13573d6000803e3d6000fd5b505050506040513d601f19601f8201168201806040525081019062001c39919062004601565b90503073ffffffffffffffffffffffffffffffffffffffff16816060015173ffffffffffffffffffffffffffffffffffffffff16636352211e83608001516040518263ffffffff1660e01b815260040162001c95919062005267565b60206040518083038186803b15801562001cae57600080fd5b505afa15801562001cc3573d6000803e3d6000fd5b505050506040513d601f19601f8201168201806040525081019062001ce9919062004418565b73ffffffffffffffffffffffffffffffffffffffff161462001d42576040517f08c379a000000000000000000000000000000000000000000000000000000000815260040162001d399062005107565b60405180910390fd5b6000308260800151836060015160405162001d5d9062003fa3565b62001d6b9392919062004e61565b604051809103906000f08015801562001d88573d6000803e3d6000fd5b5090503073ffffffffffffffffffffffffffffffffffffffff168173ffffffffffffffffffffffffffffffffffffffff16638da5cb5b6040518163ffffffff1660e01b815260040160206040518083038186803b15801562001de957600080fd5b505afa15801562001dfe573d6000803e3d6000fd5b505050506040513d601f19601f8201168201806040525081019062001e24919062004418565b73ffffffffffffffffffffffffffffffffffffffff161462001e7d576040517f08c379a000000000000000000000000000000000000000000000000000000000815260040162001e74906200505d565b60405180910390fd5b816060015173ffffffffffffffffffffffffffffffffffffffff1663095ea7b38284608001516040518363ffffffff1660e01b815260040162001ec292919062004e34565b600060405180830381600087803b15801562001edd57600080fd5b505af115801562001ef2573d6000803e3d6000fd5b505050508073ffffffffffffffffffffffffffffffffffffffff16636e553f65836080015184606001516040518363ffffffff1660e01b815260040162001f3b92919062005284565b602060405180830381600087803b15801562001f5657600080fd5b505af115801562001f6b573d6000803e3d6000fd5b505050506040513d601f19601f8201168201806040525081019062001f91919062004550565b50600360009054906101000a900473ffffffffffffffffffffffffffffffffffffffff1673ffffffffffffffffffffffffffffffffffffffff166341eb24b1338585600001518660200151868860600151896080015160016040518963ffffffff1660e01b81526004016200200e98979695949392919062004f0b565b600060405180830381600087803b1580156200202957600080fd5b505af11580156200203e573d6000803e3d6000fd5b50505050827f5d2e146c95f4ec58ed7e1dc5cc4f32ff5ffdd304fdd34cfd84a930d39f1f5e7260405160405180910390a2505050565b60008060009054906101000a900473ffffffffffffffffffffffffffffffffffffffff16905090565b600360149054906101000a900460ff1615620020f0576040517f08c379a0000000000000000000000000000000000000000000000000000000008152600401620020e7906200514b565b60405180910390fd5b6000600360009054906101000a900473ffffffffffffffffffffffffffffffffffffffff1673ffffffffffffffffffffffffffffffffffffffff1663dfd7f4ae33856040518363ffffffff1660e01b81526004016200215192919062004e34565b60e06040518083038186803b1580156200216a57600080fd5b505afa1580156200217f573d6000803e3d6000fd5b505050506040513d601f19601f82011682018060405250810190620021a5919062004601565b905060036004811115620021e2577f4e487b7100000000000000000000000000000000000000000000000000000000600052602160045260246000fd5b8160a00151600481111562002220577f4e487b7100000000000000000000000000000000000000000000000000000000600052602160045260246000fd5b1462002263576040517f08c379a00000000000000000000000000000000000000000000000000000000081526004016200225a906200516d565b60405180910390fd5b600062002271848462003177565b9050600260009054906101000a900473ffffffffffffffffffffffffffffffffffffffff1673ffffffffffffffffffffffffffffffffffffffff1663413e167733836040518363ffffffff1660e01b8152600401620022d292919062004e34565b600060405180830381600087803b158015620022ed57600080fd5b505af115801562002302573d6000803e3d6000fd5b50505050837fb5947234d9d981e6dc885e516b3a8cabc0aded467c00d88a12aea0402fb37a5333836040516200233a92919062004e34565b60405180910390a250505050565b6200235262003a39565b600360009054906101000a900473ffffffffffffffffffffffffffffffffffffffff1673ffffffffffffffffffffffffffffffffffffffff1663dfd7f4ae82866040518363ffffffff1660e01b8152600401620023b192919062004e34565b60e06040518083038186803b158015620023ca57600080fd5b505afa158015620023df573d6000803e3d6000fd5b505050506040513d601f19601f8201168201806040525081019062002405919062004601565b506000600360009054906101000a900473ffffffffffffffffffffffffffffffffffffffff1673ffffffffffffffffffffffffffffffffffffffff1663955af5c38686866040518463ffffffff1660e01b81526004016200246993929190620053e2565b602060405180830381600087803b1580156200248457600080fd5b505af115801562002499573d6000803e3d6000fd5b505050506040513d601f19601f82011682018060405250810190620024bf919062004685565b905080857f1999b5cf4c86a262821b1ab4825d62e65f2350bc1f6476d25352cb4a2202f30486604051620024f4919062005267565b60405180910390a35050505050565b600160009054906101000a900473ffffffffffffffffffffffffffffffffffffffff1681565b600360149054906101000a900460ff1681565b600260009054906101000a900473ffffffffffffffffffffffffffffffffffffffff1681565b600360149054906101000a900460ff1615620025b5576040517f08c379a0000000000000000000000000000000000000000000000000000000008152600401620025ac906200514b565b60405180910390fd5b6000600260009054906101000a900473ffffffffffffffffffffffffffffffffffffffff1673ffffffffffffffffffffffffffffffffffffffff1663d22368676040518163ffffffff1660e01b815260040160206040518083038186803b1580156200262057600080fd5b505afa15801562002635573d6000803e3d6000fd5b505050506040513d601f19601f820116820180604052508101906200265b919062004418565b73ffffffffffffffffffffffffffffffffffffffff16635055149c846040518263ffffffff1660e01b815260040162002695919062005267565b6101006040518083038186803b158015620026af57600080fd5b505afa158015620026c4573d6000803e3d6000fd5b505050506040513d601f19601f82011682018060405250810190620026ea9190620045d4565b90508060a0015173ffffffffffffffffffffffffffffffffffffffff163373ffffffffffffffffffffffffffffffffffffffff161462002761576040517f08c379a0000000000000000000000000000000000000000000000000000000008152600401620027589062005217565b60405180910390fd5b6000600260009054906101000a900473ffffffffffffffffffffffffffffffffffffffff1673ffffffffffffffffffffffffffffffffffffffff1663139d179f856040518263ffffffff1660e01b8152600401620027c0919062005267565b60206040518083038186803b158015620027d957600080fd5b505afa158015620027ee573d6000803e3d6000fd5b505050506040513d601f19601f8201168201806040525081019062002814919062004685565b9050600260009054906101000a900473ffffffffffffffffffffffffffffffffffffffff1673ffffffffffffffffffffffffffffffffffffffff1663da2488cd85856040518363ffffffff1660e01b81526004016200287592919062005284565b600060405180830381600087803b1580156200289057600080fd5b505af1158015620028a5573d6000803e3d6000fd5b50505050837faf7faf29a251efa1bcf2b47dab1a72baa0906a2e4ff957e6cb6d4f7c642161ab82604051620028db919062005267565b60405180910390a250505050565b600360149054906101000a900460ff16156200293c576040517f08c379a000000000000000000000000000000000000000000000000000000000815260040162002933906200514b565b60405180910390fd5b600073ffffffffffffffffffffffffffffffffffffffff168573ffffffffffffffffffffffffffffffffffffffff161415620029af576040517f08c379a0000000000000000000000000000000000000000000000000000000008152600401620029a69062005019565b60405180910390fd5b6000600260009054906101000a900473ffffffffffffffffffffffffffffffffffffffff1673ffffffffffffffffffffffffffffffffffffffff1663d22368676040518163ffffffff1660e01b815260040160206040518083038186803b15801562002a1a57600080fd5b505afa15801562002a2f573d6000803e3d6000fd5b505050506040513d601f19601f8201168201806040525081019062002a55919062004418565b90508073ffffffffffffffffffffffffffffffffffffffff16635055149c836040518263ffffffff1660e01b815260040162002a92919062005267565b6101006040518083038186803b15801562002aac57600080fd5b505afa15801562002ac1573d6000803e3d6000fd5b505050506040513d601f19601f8201168201806040525081019062002ae79190620045d4565b5062002af4848462003c0c565b62002b36576040517f08c379a000000000000000000000000000000000000000000000000000000000815260040162002b2d90620050e5565b60405180910390fd5b82600260009054906101000a900473ffffffffffffffffffffffffffffffffffffffff1673ffffffffffffffffffffffffffffffffffffffff1663d060f501846040518263ffffffff1660e01b815260040162002b94919062005267565b60206040518083038186803b15801562002bad57600080fd5b505afa15801562002bc2573d6000803e3d6000fd5b505050506040513d601f19601f8201168201806040525081019062002be8919062004685565b1162002c2b576040517f08c379a000000000000000000000000000000000000000000000000000000000815260040162002c22906200507f565b60405180910390fd5b62002c7c333086600160009054906101000a900473ffffffffffffffffffffffffffffffffffffffff1673ffffffffffffffffffffffffffffffffffffffff16620039ac909392919063ffffffff16565b6000600260009054906101000a900473ffffffffffffffffffffffffffffffffffffffff1673ffffffffffffffffffffffffffffffffffffffff166322385ed48585336040518463ffffffff1660e01b815260040162002cdf93929190620053a5565b602060405180830381600087803b15801562002cfa57600080fd5b505af115801562002d0f573d6000803e3d6000fd5b505050506040513d601f19601f8201168201806040525081019062002d35919062004685565b9050838562002d459190620054d7565b600160009054906101000a900473ffffffffffffffffffffffffffffffffffffffff1673ffffffffffffffffffffffffffffffffffffffff166370a08231306040518263ffffffff1660e01b815260040162002da2919062004dda565b60206040518083038186803b15801562002dbb57600080fd5b505afa15801562002dd0573d6000803e3d6000fd5b505050506040513d601f19601f8201168201806040525081019062002df6919062004685565b101562002e3a576040517f08c379a000000000000000000000000000000000000000000000000000000000815260040162002e319062004ff7565b60405180910390fd5b6000600360009054906101000a900473ffffffffffffffffffffffffffffffffffffffff1673ffffffffffffffffffffffffffffffffffffffff1663e7aa2df633848760008d8d6040518763ffffffff1660e01b815260040162002ea49695949392919062004e9e565b602060405180830381600087803b15801562002ebf57600080fd5b505af115801562002ed4573d6000803e3d6000fd5b505050506040513d601f19601f8201168201806040525081019062002efa919062004685565b9050803373ffffffffffffffffffffffffffffffffffffffff167fd825c95624e3d9df6a1a2617ef81f3054120ace1880a51e6e51ef7415ac4a66588600360009054906101000a900473ffffffffffffffffffffffffffffffffffffffff1673ffffffffffffffffffffffffffffffffffffffff16637453275b6040518163ffffffff1660e01b815260040160206040518083038186803b15801562002f9f57600080fd5b505afa15801562002fb4573d6000803e3d6000fd5b505050506040513d601f19601f8201168201806040525081019062002fda91906200462d565b60405162002fea929190620052de565b60405180910390a35050505050505050565b6000600260009054906101000a900473ffffffffffffffffffffffffffffffffffffffff1673ffffffffffffffffffffffffffffffffffffffff1663d060f501836040518263ffffffff1660e01b81526004016200305b919062005267565b60206040518083038186803b1580156200307457600080fd5b505afa15801562003089573d6000803e3d6000fd5b505050506040513d601f19601f82011682018060405250810190620030af919062004685565b9050919050565b620030c062003a39565b600073ffffffffffffffffffffffffffffffffffffffff168173ffffffffffffffffffffffffffffffffffffffff16141562003133576040517f08c379a00000000000000000000000000000000000000000000000000000000081526004016200312a906200503b565b60405180910390fd5b6200313e8162003abe565b50565b6200314b62003a39565b600360149054906101000a900460ff1615600360146101000a81548160ff021916908315150217905550565b600080600360009054906101000a900473ffffffffffffffffffffffffffffffffffffffff1673ffffffffffffffffffffffffffffffffffffffff1663dfd7f4ae33866040518363ffffffff1660e01b8152600401620031d992919062004e34565b60e06040518083038186803b158015620031f257600080fd5b505afa15801562003207573d6000803e3d6000fd5b505050506040513d601f19601f820116820180604052508101906200322d919062004601565b90506000600260009054906101000a900473ffffffffffffffffffffffffffffffffffffffff1673ffffffffffffffffffffffffffffffffffffffff1663d22368676040518163ffffffff1660e01b815260040160206040518083038186803b1580156200329a57600080fd5b505afa158015620032af573d6000803e3d6000fd5b505050506040513d601f19601f82011682018060405250810190620032d5919062004418565b73ffffffffffffffffffffffffffffffffffffffff16636bac6372836020015184600001516040518363ffffffff1660e01b81526004016200331992919062005378565b60c06040518083038186803b1580156200333257600080fd5b505afa15801562003347573d6000803e3d6000fd5b505050506040513d601f19601f820116820180604052508101906200336d9190620045a8565b90506000600260009054906101000a900473ffffffffffffffffffffffffffffffffffffffff1673ffffffffffffffffffffffffffffffffffffffff1663d22368676040518163ffffffff1660e01b815260040160206040518083038186803b158015620033da57600080fd5b505afa158015620033ef573d6000803e3d6000fd5b505050506040513d601f19601f8201168201806040525081019062003415919062004418565b73ffffffffffffffffffffffffffffffffffffffff16635055149c83600001516040518263ffffffff1660e01b815260040162003453919062005267565b6101006040518083038186803b1580156200346d57600080fd5b505afa15801562003482573d6000803e3d6000fd5b505050506040513d601f19601f82011682018060405250810190620034a89190620045d4565b90506000600360009054906101000a900473ffffffffffffffffffffffffffffffffffffffff1673ffffffffffffffffffffffffffffffffffffffff1663500db2a6876040518263ffffffff1660e01b815260040162003509919062005267565b60a06040518083038186803b1580156200352257600080fd5b505afa15801562003537573d6000803e3d6000fd5b505050506040513d601f19601f820116820180604052508101906200355d91906200457c565b90506000836040015190506000600260009054906101000a900473ffffffffffffffffffffffffffffffffffffffff1673ffffffffffffffffffffffffffffffffffffffff1663341d8cd986866040518363ffffffff1660e01b8152600401620035c992919062005239565b60206040518083038186803b158015620035e257600080fd5b505afa158015620035f7573d6000803e3d6000fd5b505050506040513d601f19601f820116820180604052508101906200361d919062004685565b90506000600260009054906101000a900473ffffffffffffffffffffffffffffffffffffffff1673ffffffffffffffffffffffffffffffffffffffff1663d22368676040518163ffffffff1660e01b815260040160206040518083038186803b1580156200368a57600080fd5b505afa1580156200369f573d6000803e3d6000fd5b505050506040513d601f19601f82011682018060405250810190620036c5919062004418565b73ffffffffffffffffffffffffffffffffffffffff1663672e4d6e88600001516040518263ffffffff1660e01b815260040162003703919062005267565b60206040518083038186803b1580156200371c57600080fd5b505afa15801562003731573d6000803e3d6000fd5b505050506040513d601f19601f8201168201806040525081019062003757919062004685565b905060008183620037699190620055a4565b90506000600260009054906101000a900473ffffffffffffffffffffffffffffffffffffffff1673ffffffffffffffffffffffffffffffffffffffff1663817f203c8a600001518b602001516040518363ffffffff1660e01b8152600401620037d492919062005378565b60206040518083038186803b158015620037ed57600080fd5b505afa15801562003802573d6000803e3d6000fd5b505050506040513d601f19601f8201168201806040525081019062003828919062004550565b15620038f9576064600260009054906101000a900473ffffffffffffffffffffffffffffffffffffffff1673ffffffffffffffffffffffffffffffffffffffff16632658bad56040518163ffffffff1660e01b815260040160206040518083038186803b1580156200389957600080fd5b505afa158015620038ae573d6000803e3d6000fd5b505050506040513d601f19601f82011682018060405250810190620038d4919062004685565b8960400151620038e59190620055a4565b620038f191906200556c565b9050620038fe565b600090505b60028860400151620039119190620055a4565b866020015110156200397f576000866020015160028a60400151620039379190620055a4565b62003943919062005605565b90508082620039539190620054d7565b8387620039619190620054d7565b6200396d919062005605565b9a5050505050505050505050620039a6565b8082866200398e9190620054d7565b6200399a919062005605565b99505050505050505050505b92915050565b62003a33846323b872dd60e01b858585604051602401620039d09392919062004df7565b604051602081830303815290604052907bffffffffffffffffffffffffffffffffffffffffffffffffffffffff19166020820180517bffffffffffffffffffffffffffffffffffffffffffffffffffffffff838183161783525050505062003d01565b50505050565b62003a4362003dd0565b73ffffffffffffffffffffffffffffffffffffffff1662003a6362002074565b73ffffffffffffffffffffffffffffffffffffffff161462003abc576040517f08c379a000000000000000000000000000000000000000000000000000000000815260040162003ab39062005129565b60405180910390fd5b565b60008060009054906101000a900473ffffffffffffffffffffffffffffffffffffffff169050816000806101000a81548173ffffffffffffffffffffffffffffffffffffffff021916908373ffffffffffffffffffffffffffffffffffffffff1602179055508173ffffffffffffffffffffffffffffffffffffffff168173ffffffffffffffffffffffffffffffffffffffff167f8be0079c531659141344cd1fd0a4f28419497f9722a3daafe3b4186f6b6457e060405160405180910390a35050565b62003c078363a9059cbb60e01b848460405160240162003ba492919062004e34565b604051602081830303815290604052907bffffffffffffffffffffffffffffffffffffffffffffffffffffffff19166020820180517bffffffffffffffffffffffffffffffffffffffffffffffffffffffff838183161783525050505062003d01565b505050565b600080600360009054906101000a900473ffffffffffffffffffffffffffffffffffffffff1673ffffffffffffffffffffffffffffffffffffffff16637453275b6040518163ffffffff1660e01b815260040160206040518083038186803b15801562003c7857600080fd5b505afa15801562003c8d573d6000803e3d6000fd5b505050506040513d601f19601f8201168201806040525081019062003cb391906200462d565b606462003cc1919062005534565b9050828462003cd19190620054d7565b8161ffff168562003ce39190620055a4565b141562003cf557600191505062003cfb565b60009150505b92915050565b600062003d65826040518060400160405280602081526020017f5361666545524332303a206c6f772d6c6576656c2063616c6c206661696c65648152508573ffffffffffffffffffffffffffffffffffffffff1662003dd89092919063ffffffff16565b905060008151111562003dcb578080602001905181019062003d88919062004550565b62003dca576040517f08c379a000000000000000000000000000000000000000000000000000000000815260040162003dc190620051d3565b60405180910390fd5b5b505050565b600033905090565b606062003de9848460008562003df2565b90509392505050565b60608247101562003e3a576040517f08c379a000000000000000000000000000000000000000000000000000000000815260040162003e3190620050a1565b60405180910390fd5b62003e458562003f14565b62003e87576040517f08c379a000000000000000000000000000000000000000000000000000000000815260040162003e7e90620051b1565b60405180910390fd5b6000808673ffffffffffffffffffffffffffffffffffffffff16858760405162003eb2919062004dc1565b60006040518083038185875af1925050503d806000811462003ef1576040519150601f19603f3d011682016040523d82523d6000602084013e62003ef6565b606091505b509150915062003f0882828662003f37565b92505050949350505050565b6000808273ffffffffffffffffffffffffffffffffffffffff163b119050919050565b6060831562003f495782905062003f9c565b60008351111562003f5d5782518084602001fd5b816040517f08c379a000000000000000000000000000000000000000000000000000000000815260040162003f93919062004fd3565b60405180910390fd5b9392505050565b610cfa8062005de483390190565b60008135905062003fc28162005d26565b92915050565b60008151905062003fd98162005d26565b92915050565b60008151905062003ff08162005d40565b92915050565b60008083601f8401126200400957600080fd5b8235905067ffffffffffffffff8111156200402357600080fd5b6020830191508360018202830111156200403c57600080fd5b9250929050565b600081519050620040548162005d5a565b92915050565b6000813590506200406b8162005d6b565b92915050565b600081519050620040828162005d7c565b92915050565b600081519050620040998162005d8d565b92915050565b600081519050620040b08162005d9e565b92915050565b600060a08284031215620040c957600080fd5b620040d560a06200547c565b90506000620040e784828501620043d5565b6000830152506020620040fd84828501620043d5565b60208301525060406200411384828501620043d5565b6040830152506060620041298482850162004043565b60608301525060806200413f8482850162003fdf565b60808301525092915050565b600060c082840312156200415e57600080fd5b6200416a60c06200547c565b905060006200417c84828501620043d5565b6000830152506020620041928482850162003fc8565b6020830152506040620041a884828501620043d5565b6040830152506060620041be84828501620043d5565b6060830152506080620041d48482850162004071565b60808301525060a0620041ea8482850162003fdf565b60a08301525092915050565b600061010082840312156200420a57600080fd5b620042176101006200547c565b905060006200422984828501620043d5565b60008301525060206200423f84828501620043a7565b60208301525060406200425584828501620043a7565b60408301525060606200426b84828501620043d5565b60608301525060806200428184828501620043a7565b60808301525060a0620042978482850162003fc8565b60a08301525060c0620042ad8482850162004088565b60c08301525060e0620042c38482850162003fdf565b60e08301525092915050565b600060e08284031215620042e257600080fd5b620042ee60e06200547c565b905060006200430084828501620043d5565b60008301525060206200431684828501620043d5565b60208301525060406200432c8482850162003fc8565b6040830152506060620043428482850162003fc8565b60608301525060806200435884828501620043d5565b60808301525060a06200436e848285016200409f565b60a08301525060c0620043848482850162003fdf565b60c08301525092915050565b600081359050620043a18162005daf565b92915050565b600081519050620043b88162005daf565b92915050565b600081359050620043cf8162005dc9565b92915050565b600081519050620043e68162005dc9565b92915050565b600060208284031215620043ff57600080fd5b60006200440f8482850162003fb1565b91505092915050565b6000602082840312156200442b57600080fd5b60006200443b8482850162003fc8565b91505092915050565b6000806000806000608086880312156200445d57600080fd5b60006200446d8882890162003fb1565b9550506020620044808882890162003fb1565b94505060406200449388828901620043be565b935050606086013567ffffffffffffffff811115620044b157600080fd5b620044bf8882890162003ff6565b92509250509295509295909350565b600080600080600060a08688031215620044e757600080fd5b6000620044f78882890162003fb1565b95505060206200450a88828901620043be565b94505060406200451d88828901620043be565b93505060606200453088828901620043be565b92505060806200454388828901620043be565b9150509295509295909350565b6000602082840312156200456357600080fd5b6000620045738482850162003fdf565b91505092915050565b600060a082840312156200458f57600080fd5b60006200459f84828501620040b6565b91505092915050565b600060c08284031215620045bb57600080fd5b6000620045cb848285016200414b565b91505092915050565b60006101008284031215620045e857600080fd5b6000620045f884828501620041f6565b91505092915050565b600060e082840312156200461457600080fd5b60006200462484828501620042cf565b91505092915050565b6000602082840312156200464057600080fd5b60006200465084828501620043a7565b91505092915050565b6000602082840312156200466c57600080fd5b60006200467c84828501620043be565b91505092915050565b6000602082840312156200469857600080fd5b6000620046a884828501620043d5565b91505092915050565b60008060408385031215620046c557600080fd5b6000620046d585828601620043be565b9250506020620046e88582860162003fb1565b9150509250929050565b6000806000606084860312156200470857600080fd5b60006200471886828701620043be565b93505060206200472b868287016200405a565b92505060406200473e86828701620043be565b9150509250925092565b60008060008060008060c087890312156200476257600080fd5b60006200477289828a01620043be565b96505060206200478589828a0162004390565b95505060406200479889828a0162004390565b9450506060620047ab89828a01620043be565b9350506080620047be89828a0162004390565b92505060a0620047d189828a0162003fb1565b9150509295509295509295565b60008060408385031215620047f257600080fd5b60006200480285828601620043be565b92505060206200481585828601620043be565b9150509250929050565b600080600080608085870312156200483657600080fd5b60006200484687828801620043be565b94505060206200485987828801620043be565b93505060406200486c87828801620043be565b92505060606200487f8782880162003fb1565b91505092959194509250565b620048968162005640565b82525050565b620048a78162005640565b82525050565b620048b88162005654565b82525050565b620048c98162005654565b82525050565b620048da8162005660565b82525050565b6000620048ed82620054a5565b620048f98185620054bb565b93506200490b81856020860162005791565b80840191505092915050565b62004922816200572d565b82525050565b620049338162005741565b82525050565b620049448162005755565b82525050565b620049558162005769565b82525050565b62004966816200577d565b82525050565b60006200497982620054b0565b620049858185620054c6565b93506200499781856020860162005791565b620049a281620058b9565b840191505092915050565b6000620049bc602783620054c6565b9150620049c982620058ca565b604082019050919050565b6000620049e3602c83620054c6565b9150620049f08262005919565b604082019050919050565b600062004a0a602683620054c6565b915062004a178262005968565b604082019050919050565b600062004a31601d83620054c6565b915062004a3e82620059b7565b602082019050919050565b600062004a58603683620054c6565b915062004a6582620059e0565b604082019050919050565b600062004a7f602683620054c6565b915062004a8c8262005a2f565b604082019050919050565b600062004aa6602183620054c6565b915062004ab38262005a7e565b604082019050919050565b600062004acd602683620054c6565b915062004ada8262005acd565b604082019050919050565b600062004af4601c83620054c6565b915062004b018262005b1c565b602082019050919050565b600062004b1b602083620054c6565b915062004b288262005b45565b602082019050919050565b600062004b42601983620054c6565b915062004b4f8262005b6e565b602082019050919050565b600062004b69601d83620054c6565b915062004b768262005b97565b602082019050919050565b600062004b90601783620054c6565b915062004b9d8262005bc0565b602082019050919050565b600062004bb7601d83620054c6565b915062004bc48262005be9565b602082019050919050565b600062004bde602a83620054c6565b915062004beb8262005c12565b604082019050919050565b600062004c05601d83620054c6565b915062004c128262005c61565b602082019050919050565b600062004c2c601e83620054c6565b915062004c398262005c8a565b602082019050919050565b60c08201600082015162004c5c600085018262004d9f565b50602082015162004c7160208501826200488b565b50604082015162004c86604085018262004d9f565b50606082015162004c9b606085018262004d9f565b50608082015162004cb0608085018262004939565b5060a082015162004cc560a0850182620048ad565b50505050565b6101008201600082015162004ce4600085018262004d9f565b50602082015162004cf9602085018262004d7d565b50604082015162004d0e604085018262004d7d565b50606082015162004d23606085018262004d9f565b50608082015162004d38608085018262004d7d565b5060a082015162004d4d60a08501826200488b565b5060c082015162004d6260c08501826200494a565b5060e082015162004d7760e0850182620048ad565b50505050565b62004d8881620056f5565b82525050565b62004d9981620056f5565b82525050565b62004daa8162005723565b82525050565b62004dbb8162005723565b82525050565b600062004dcf8284620048e0565b915081905092915050565b600060208201905062004df160008301846200489c565b92915050565b600060608201905062004e0e60008301866200489c565b62004e1d60208301856200489c565b62004e2c604083018462004db0565b949350505050565b600060408201905062004e4b60008301856200489c565b62004e5a602083018462004db0565b9392505050565b600060608201905062004e7860008301866200489c565b62004e87602083018562004db0565b62004e9660408301846200489c565b949350505050565b600060c08201905062004eb560008301896200489c565b62004ec4602083018862004db0565b62004ed3604083018762004db0565b62004ee260608301866200489c565b62004ef160808301856200489c565b62004f0060a083018462004db0565b979650505050505050565b60006101008201905062004f23600083018b6200489c565b62004f32602083018a62004db0565b62004f41604083018962004db0565b62004f50606083018862004db0565b62004f5f60808301876200489c565b62004f6e60a08301866200489c565b62004f7d60c083018562004db0565b62004f8c60e08301846200495b565b9998505050505050505050565b600060208201905062004fb06000830184620048be565b92915050565b600060208201905062004fcd6000830184620048cf565b92915050565b6000602082019050818103600083015262004fef81846200496c565b905092915050565b600060208201905081810360008301526200501281620049ad565b9050919050565b600060208201905081810360008301526200503481620049d4565b9050919050565b600060208201905081810360008301526200505681620049fb565b9050919050565b60006020820190508181036000830152620050788162004a22565b9050919050565b600060208201905081810360008301526200509a8162004a49565b9050919050565b60006020820190508181036000830152620050bc8162004a70565b9050919050565b60006020820190508181036000830152620050de8162004a97565b9050919050565b60006020820190508181036000830152620051008162004abe565b9050919050565b60006020820190508181036000830152620051228162004ae5565b9050919050565b60006020820190508181036000830152620051448162004b0c565b9050919050565b60006020820190508181036000830152620051668162004b33565b9050919050565b60006020820190508181036000830152620051888162004b5a565b9050919050565b60006020820190508181036000830152620051aa8162004b81565b9050919050565b60006020820190508181036000830152620051cc8162004ba8565b9050919050565b60006020820190508181036000830152620051ee8162004bcf565b9050919050565b60006020820190508181036000830152620052108162004bf6565b9050919050565b60006020820190508181036000830152620052328162004c1d565b9050919050565b60006101c08201905062005251600083018562004c44565b6200526060c083018462004ccb565b9392505050565b60006020820190506200527e600083018462004db0565b92915050565b60006040820190506200529b600083018562004db0565b620052aa60208301846200489c565b9392505050565b6000604082019050620052c8600083018562004db0565b620052d7602083018462004928565b9392505050565b6000604082019050620052f5600083018562004db0565b62005304602083018462004d8e565b9392505050565b600060c08201905062005322600083018962004db0565b62005331602083018862004d8e565b62005340604083018762004d8e565b6200534f606083018662004db0565b6200535e608083018562004d8e565b6200536d60a08301846200489c565b979650505050505050565b60006040820190506200538f600083018562004db0565b6200539e602083018462004db0565b9392505050565b6000606082019050620053bc600083018662004db0565b620053cb602083018562004db0565b620053da60408301846200489c565b949350505050565b6000606082019050620053f9600083018662004db0565b62005408602083018562004db0565b62005417604083018462004db0565b949350505050565b600060a08201905062005436600083018862004db0565b62005445602083018762004db0565b62005454604083018662004db0565b62005463606083018562004917565b62005472608083018462004db0565b9695505050505050565b6000620054886200549b565b9050620054968282620057c7565b919050565b6000604051905090565b600081519050919050565b600081519050919050565b600081905092915050565b600082825260208201905092915050565b6000620054e48262005723565b9150620054f18362005723565b9250827fffffffffffffffffffffffffffffffffffffffffffffffffffffffffffffffff03821115620055295762005528620057fd565b5b828201905092915050565b60006200554182620056f5565b91506200554e83620056f5565b9250826200556157620055606200582c565b5b828204905092915050565b6000620055798262005723565b9150620055868362005723565b9250826200559957620055986200582c565b5b828204905092915050565b6000620055b18262005723565b9150620055be8362005723565b9250817fffffffffffffffffffffffffffffffffffffffffffffffffffffffffffffffff0483118215151615620055fa57620055f9620057fd565b5b828202905092915050565b6000620056128262005723565b91506200561f8362005723565b925082821015620056355762005634620057fd565b5b828203905092915050565b60006200564d8262005703565b9050919050565b60008115159050919050565b60007fffffffff0000000000000000000000000000000000000000000000000000000082169050919050565b60008190506200569c8262005cb3565b919050565b6000819050620056b18262005cca565b919050565b6000819050620056c68262005ce1565b919050565b6000819050620056db8262005cf8565b919050565b6000819050620056f08262005d0f565b919050565b600061ffff82169050919050565b600073ffffffffffffffffffffffffffffffffffffffff82169050919050565b6000819050919050565b60006200573a826200568c565b9050919050565b60006200574e82620056a1565b9050919050565b60006200576282620056b6565b9050919050565b60006200577682620056cb565b9050919050565b60006200578a82620056e0565b9050919050565b60005b83811015620057b157808201518184015260208101905062005794565b83811115620057c1576000848401525b50505050565b620057d282620058b9565b810181811067ffffffffffffffff82111715620057f457620057f36200588a565b5b80604052505050565b7f4e487b7100000000000000000000000000000000000000000000000000000000600052601160045260246000fd5b7f4e487b7100000000000000000000000000000000000000000000000000000000600052601260045260246000fd5b7f4e487b7100000000000000000000000000000000000000000000000000000000600052602160045260246000fd5b7f4e487b7100000000000000000000000000000000000000000000000000000000600052604160045260246000fd5b6000601f19601f8301169050919050565b7f517265646f732e70757263686173654e46543a20496e73756666696369656e7460008201527f2066756e64732100000000000000000000000000000000000000000000000000602082015250565b7f517265646f732e70757263686173654e46543a2061646472657373206973207a60008201527f65726f2061646472657373210000000000000000000000000000000000000000602082015250565b7f4f776e61626c653a206e6577206f776e657220697320746865207a65726f206160008201527f6464726573730000000000000000000000000000000000000000000000000000602082015250565b7f517265646f733a20496e76616c696420657363726f77206f776e657221000000600082015250565b7f517265646f732e70757263686173654e46543a2053656c656374656420706f6f60008201527f6c2063616e27742066756e642070757263686173652100000000000000000000602082015250565b7f416464726573733a20696e73756666696369656e742062616c616e636520666f60008201527f722063616c6c0000000000000000000000000000000000000000000000000000602082015250565b7f517265646f733a206c6f616e52657061796d656e7420696e636f6d706c65746560008201527f2100000000000000000000000000000000000000000000000000000000000000602082015250565b7f517265646f732e70757263686173654e46543a20496e76616c6964207072696e60008201527f636970616c210000000000000000000000000000000000000000000000000000602082015250565b7f517265646f733a20507572636861736520496e636f6d706c6574652100000000600082015250565b7f4f776e61626c653a2063616c6c6572206973206e6f7420746865206f776e6572600082015250565b7f517265646f733a2063757272656e746c79207061757365642100000000000000600082015250565b7f517265646f733a2063616e7420726566756e6420626f72726f77657221000000600082015250565b7f517265646f733a20636c61696d20726576657274656421000000000000000000600082015250565b7f416464726573733a2063616c6c20746f206e6f6e2d636f6e7472616374000000600082015250565b7f5361666545524332303a204552433230206f7065726174696f6e20646964206e60008201527f6f74207375636365656400000000000000000000000000000000000000000000602082015250565b7f517265646f733a206c69717569646174696f6e20726576657274656421000000600082015250565b7f63616c6c65722073686f756c6420626520706f6f6c2063726561746f72210000600082015250565b6002811062005cc75762005cc66200585b565b5b50565b6002811062005cde5762005cdd6200585b565b5b50565b6002811062005cf55762005cf46200585b565b5b50565b6002811062005d0c5762005d0b6200585b565b5b50565b6005811062005d235762005d226200585b565b5b50565b62005d318162005640565b811462005d3d57600080fd5b50565b62005d4b8162005654565b811462005d5757600080fd5b50565b6002811062005d6857600080fd5b50565b6002811062005d7957600080fd5b50565b6002811062005d8a57600080fd5b50565b6002811062005d9b57600080fd5b50565b6005811062005dac57600080fd5b50565b62005dba81620056f5565b811462005dc657600080fd5b50565b62005dd48162005723565b811462005de057600080fd5b5056fe60e06040523480156200001157600080fd5b5060405162000cfa38038062000cfa833981810160405281019062000037919062000124565b336000806101000a81548173ffffffffffffffffffffffffffffffffffffffff021916908373ffffffffffffffffffffffffffffffffffffffff1602179055508273ffffffffffffffffffffffffffffffffffffffff1660808173ffffffffffffffffffffffffffffffffffffffff1660601b815250508160a081815250508073ffffffffffffffffffffffffffffffffffffffff1660c08173ffffffffffffffffffffffffffffffffffffffff1660601b81525050505050620001ec565b6000815190506200010781620001b8565b92915050565b6000815190506200011e81620001d2565b92915050565b6000806000606084860312156200013a57600080fd5b60006200014a86828701620000f6565b93505060206200015d868287016200010d565b92505060406200017086828701620000f6565b9150509250925092565b600062000187826200018e565b9050919050565b600073ffffffffffffffffffffffffffffffffffffffff82169050919050565b6000819050919050565b620001c3816200017a565b8114620001cf57600080fd5b50565b620001dd81620001ae565b8114620001e957600080fd5b50565b60805160601c60a05160c05160601c610aca62000230600039600081816102ef015261061d0152600081816101ca015261032d015260006105d50152610aca6000f3fe608060405234801561001057600080fd5b50600436106100885760003560e01c80636e553f651161005b5780636e553f65146101295780637ba61ea5146101595780638da5cb5b146101775780639d76ea581461019557610088565b8063150b7a021461008d57806317d70f7c146100bd5780631e83409a146100db578063200d2ed21461010b575b600080fd5b6100a760048036038101906100a291906106dc565b6101b3565b6040516100b49190610896565b60405180910390f35b6100c56101c8565b6040516100d2919061090c565b60405180910390f35b6100f560048036038101906100f091906106b3565b6101ec565b604051610102919061087b565b60405180910390f35b6101136103f6565b60405161012091906108b1565b60405180910390f35b610143600480360381019061013e919061075c565b610409565b604051610150919061087b565b60405180910390f35b6101616105d3565b60405161016e9190610829565b60405180910390f35b61017f6105f7565b60405161018c9190610829565b60405180910390f35b61019d61061b565b6040516101aa9190610829565b60405180910390f35b600063150b7a0260e01b905095945050505050565b7f000000000000000000000000000000000000000000000000000000000000000081565b60008060009054906101000a900473ffffffffffffffffffffffffffffffffffffffff1673ffffffffffffffffffffffffffffffffffffffff163373ffffffffffffffffffffffffffffffffffffffff161461027d576040517f08c379a0000000000000000000000000000000000000000000000000000000008152600401610274906108cc565b60405180910390fd5b600073ffffffffffffffffffffffffffffffffffffffff168273ffffffffffffffffffffffffffffffffffffffff1614156102ed576040517f08c379a00000000000000000000000000000000000000000000000000000000081526004016102e4906108ec565b60405180910390fd5b7f000000000000000000000000000000000000000000000000000000000000000073ffffffffffffffffffffffffffffffffffffffff166342842e0e30847f00000000000000000000000000000000000000000000000000000000000000006040518463ffffffff1660e01b815260040161036a93929190610844565b600060405180830381600087803b15801561038457600080fd5b505af1158015610398573d6000803e3d6000fd5b505050506001600060146101000a81548160ff021916908360018111156103e8577f4e487b7100000000000000000000000000000000000000000000000000000000600052602160045260246000fd5b021790555060019050919050565b600060149054906101000a900460ff1681565b60008060009054906101000a900473ffffffffffffffffffffffffffffffffffffffff1673ffffffffffffffffffffffffffffffffffffffff163373ffffffffffffffffffffffffffffffffffffffff161461049a576040517f08c379a0000000000000000000000000000000000000000000000000000000008152600401610491906108cc565b60405180910390fd5b600073ffffffffffffffffffffffffffffffffffffffff168273ffffffffffffffffffffffffffffffffffffffff16141561050a576040517f08c379a0000000000000000000000000000000000000000000000000000000008152600401610501906108ec565b60405180910390fd5b8173ffffffffffffffffffffffffffffffffffffffff166342842e0e3330866040518463ffffffff1660e01b815260040161054793929190610844565b600060405180830381600087803b15801561056157600080fd5b505af1158015610575573d6000803e3d6000fd5b5050505060008060146101000a81548160ff021916908360018111156105c4577f4e487b7100000000000000000000000000000000000000000000000000000000600052602160045260246000fd5b02179055506001905092915050565b7f000000000000000000000000000000000000000000000000000000000000000081565b60008054906101000a900473ffffffffffffffffffffffffffffffffffffffff1681565b7f000000000000000000000000000000000000000000000000000000000000000081565b60008135905061064e81610a66565b92915050565b60008083601f84011261066657600080fd5b8235905067ffffffffffffffff81111561067f57600080fd5b60208301915083600182028301111561069757600080fd5b9250929050565b6000813590506106ad81610a7d565b92915050565b6000602082840312156106c557600080fd5b60006106d38482850161063f565b91505092915050565b6000806000806000608086880312156106f457600080fd5b60006107028882890161063f565b95505060206107138882890161063f565b94505060406107248882890161069e565b935050606086013567ffffffffffffffff81111561074157600080fd5b61074d88828901610654565b92509250509295509295909350565b6000806040838503121561076f57600080fd5b600061077d8582860161069e565b925050602061078e8582860161063f565b9150509250929050565b6107a181610938565b82525050565b6107b08161094a565b82525050565b6107bf81610956565b82525050565b6107ce816109bf565b82525050565b60006107e1601c83610927565b91506107ec82610a00565b602082019050919050565b6000610804602083610927565b915061080f82610a29565b602082019050919050565b610823816109b5565b82525050565b600060208201905061083e6000830184610798565b92915050565b60006060820190506108596000830186610798565b6108666020830185610798565b610873604083018461081a565b949350505050565b600060208201905061089060008301846107a7565b92915050565b60006020820190506108ab60008301846107b6565b92915050565b60006020820190506108c660008301846107c5565b92915050565b600060208201905081810360008301526108e5816107d4565b9050919050565b60006020820190508181036000830152610905816107f7565b9050919050565b6000602082019050610921600083018461081a565b92915050565b600082825260208201905092915050565b600061094382610995565b9050919050565b60008115159050919050565b60007fffffffff0000000000000000000000000000000000000000000000000000000082169050919050565b600081905061099082610a52565b919050565b600073ffffffffffffffffffffffffffffffffffffffff82169050919050565b6000819050919050565b60006109ca82610982565b9050919050565b7f4e487b7100000000000000000000000000000000000000000000000000000000600052602160045260246000fd5b7f4f776e61626c653a2063616c6c6572206973206e6f74206f776e657200000000600082015250565b7f457363726f773a2061646472657373206973207a65726f206164647265737321600082015250565b60028110610a6357610a626109d1565b5b50565b610a6f81610938565b8114610a7a57600080fd5b50565b610a86816109b5565b8114610a9157600080fd5b5056fea2646970667358221220e94b9d925a7a92abe203935ec7d99c059e2aa2488d385a7fdb27b61bfa7fc79d64736f6c63430008010033a26469706673582212209991c919ad302371a7f48558cafb24a0df629ad50c22f2b8c3accbb80ceb31e864736f6c63430008010033",
  "linkReferences": {},
  "deployedLinkReferences": {}
}