{
  "_format": "hh-sol-artifact-1",
  "contractName": "Qredos",
  "sourceName": "contracts/Qredos.sol",
  "abi": [
    {
      "inputs": [
        {
          "internalType": "address payable",
          "name": "_lendingPoolAddress",
          "type": "address"
        },
        {
          "internalType": "address",
          "name": "_QredosStoreAddress",
          "type": "address"
        }
      ],
      "stateMutability": "nonpayable",
      "type": "constructor"
    },
    {
      "anonymous": false,
      "inputs": [
        {
          "indexed": true,
          "internalType": "uint256",
          "name": "purchaseId",
          "type": "uint256"
        },
        {
          "indexed": true,
          "internalType": "uint256",
          "name": "liquidationId",
          "type": "uint256"
        },
        {
          "indexed": false,
          "internalType": "address",
          "name": "newOwner",
          "type": "address"
        }
      ],
      "name": "CompleteLiquidation",
      "type": "event"
    },
    {
      "anonymous": false,
      "inputs": [
        {
          "indexed": false,
          "internalType": "address",
          "name": "oldValue",
          "type": "address"
        },
        {
          "indexed": false,
          "internalType": "address",
          "name": "newValue",
          "type": "address"
        }
      ],
      "name": "LendingPoolAddressUpdated",
      "type": "event"
    },
    {
      "anonymous": false,
      "inputs": [
        {
          "indexed": true,
          "internalType": "uint256",
          "name": "loanId",
          "type": "uint256"
        },
        {
          "indexed": true,
          "internalType": "uint256",
          "name": "poolId",
          "type": "uint256"
        },
        {
          "indexed": true,
          "internalType": "address",
          "name": "borrower",
          "type": "address"
        },
        {
          "indexed": false,
          "internalType": "uint256",
          "name": "principal",
          "type": "uint256"
        }
      ],
      "name": "LoanCreated",
      "type": "event"
    },
    {
      "anonymous": false,
      "inputs": [
        {
          "indexed": true,
          "internalType": "uint256",
          "name": "loanRepaymentId",
          "type": "uint256"
        },
        {
          "indexed": true,
          "internalType": "uint256",
          "name": "loanId",
          "type": "uint256"
        },
        {
          "indexed": false,
          "internalType": "uint256",
          "name": "amount",
          "type": "uint256"
        },
        {
          "indexed": false,
          "internalType": "enum Schema.LoanRepaymentType",
          "name": "",
          "type": "uint8"
        }
      ],
      "name": "LoanRepaid",
      "type": "event"
    },
    {
      "anonymous": false,
      "inputs": [
        {
          "indexed": true,
          "internalType": "uint256",
          "name": "purchaseId",
          "type": "uint256"
        },
        {
          "indexed": false,
          "internalType": "address",
          "name": "claimer",
          "type": "address"
        }
      ],
      "name": "NFTClaimed",
      "type": "event"
    },
    {
      "anonymous": false,
      "inputs": [
        {
          "indexed": true,
          "internalType": "address",
          "name": "previousOwner",
          "type": "address"
        },
        {
          "indexed": true,
          "internalType": "address",
          "name": "newOwner",
          "type": "address"
        }
      ],
      "name": "OwnershipTransferred",
      "type": "event"
    },
    {
      "anonymous": false,
      "inputs": [
        {
          "indexed": true,
          "internalType": "uint256",
          "name": "poolId",
          "type": "uint256"
        },
        {
          "indexed": false,
          "internalType": "uint256",
          "name": "amountWithdrawn",
          "type": "uint256"
        }
      ],
      "name": "PoolClosed",
      "type": "event"
    },
    {
      "anonymous": false,
      "inputs": [
        {
          "indexed": true,
          "internalType": "uint256",
          "name": "poolId",
          "type": "uint256"
        },
        {
          "indexed": true,
          "internalType": "address",
          "name": "creator",
          "type": "address"
        }
      ],
      "name": "PoolCreated",
      "type": "event"
    },
    {
      "anonymous": false,
      "inputs": [
        {
          "indexed": true,
          "internalType": "uint256",
          "name": "poolId",
          "type": "uint256"
        },
        {
          "indexed": false,
          "internalType": "uint256",
          "name": "amount",
          "type": "uint256"
        }
      ],
      "name": "PoolFunded",
      "type": "event"
    },
    {
      "anonymous": false,
      "inputs": [],
      "name": "PoolRegistryContractDeployed",
      "type": "event"
    },
    {
      "anonymous": false,
      "inputs": [
        {
          "indexed": true,
          "internalType": "uint256",
          "name": "purchaseId",
          "type": "uint256"
        }
      ],
      "name": "PurchaseCompleted",
      "type": "event"
    },
    {
      "anonymous": false,
      "inputs": [
        {
          "indexed": true,
          "internalType": "address",
          "name": "userAddress",
          "type": "address"
        },
        {
          "indexed": true,
          "internalType": "uint256",
          "name": "purchaseId",
          "type": "uint256"
        },
        {
          "indexed": false,
          "internalType": "uint256",
          "name": "downPayment",
          "type": "uint256"
        },
        {
          "indexed": false,
          "internalType": "uint16",
          "name": "downPaymentPercentage",
          "type": "uint16"
        }
      ],
      "name": "PurchaseCreated",
      "type": "event"
    },
    {
      "anonymous": false,
      "inputs": [
        {
          "indexed": false,
          "internalType": "address",
          "name": "lendingPoolAddress",
          "type": "address"
        }
      ],
      "name": "QredosContractDeployed",
      "type": "event"
    },
    {
      "anonymous": false,
      "inputs": [
        {
          "indexed": true,
          "internalType": "uint256",
          "name": "purchaseId",
          "type": "uint256"
        },
        {
          "indexed": false,
          "internalType": "address",
          "name": "borrowerAddress",
          "type": "address"
        },
        {
          "indexed": false,
          "internalType": "uint256",
          "name": "refundAmount",
          "type": "uint256"
        }
      ],
      "name": "RefundBorrower",
      "type": "event"
    },
    {
      "anonymous": false,
      "inputs": [
        {
          "indexed": true,
          "internalType": "uint256",
          "name": "purchaseId",
          "type": "uint256"
        },
        {
          "indexed": false,
          "internalType": "uint256",
          "name": "discountAmount",
          "type": "uint256"
        },
        {
          "indexed": true,
          "internalType": "uint256",
          "name": "liquidationId",
          "type": "uint256"
        }
      ],
      "name": "StartLiquidation",
      "type": "event"
    },
    {
      "inputs": [
        {
          "internalType": "uint256",
          "name": "purchaseId",
          "type": "uint256"
        },
        {
          "internalType": "uint256",
          "name": "liquidationId",
          "type": "uint256"
        }
      ],
      "name": "_calcBorrowerRefundAmount",
      "outputs": [
        {
          "internalType": "uint256",
          "name": "",
          "type": "uint256"
        }
      ],
      "stateMutability": "view",
      "type": "function"
    },
    {
      "inputs": [
        {
          "internalType": "uint256",
          "name": "purchaseId",
          "type": "uint256"
        },
        {
          "internalType": "uint256",
          "name": "poolId",
          "type": "uint256"
        }
      ],
      "name": "claimNft",
      "outputs": [],
      "stateMutability": "nonpayable",
      "type": "function"
    },
    {
      "inputs": [
        {
          "internalType": "uint256",
          "name": "poolId",
          "type": "uint256"
        },
        {
          "internalType": "address",
          "name": "reciever",
          "type": "address"
        }
      ],
      "name": "closePool",
      "outputs": [],
      "stateMutability": "nonpayable",
      "type": "function"
    },
    {
      "inputs": [
        {
          "internalType": "uint256",
          "name": "liquidationId",
          "type": "uint256"
        },
        {
          "internalType": "address",
          "name": "borrowerAddress",
          "type": "address"
        }
      ],
      "name": "completeLiquidation",
      "outputs": [],
      "stateMutability": "payable",
      "type": "function"
    },
    {
      "inputs": [
        {
          "internalType": "uint256",
          "name": "purchaseId",
          "type": "uint256"
        }
      ],
      "name": "completeNFTPurchase",
      "outputs": [],
      "stateMutability": "nonpayable",
      "type": "function"
    },
    {
      "inputs": [
        {
          "internalType": "uint256",
          "name": "_amount",
          "type": "uint256"
        },
        {
          "internalType": "uint16",
          "name": "_paymentCycle",
          "type": "uint16"
        },
        {
          "internalType": "uint16",
          "name": "_APR",
          "type": "uint16"
        },
        {
          "internalType": "uint256",
          "name": "_durationInSecs",
          "type": "uint256"
        },
        {
          "internalType": "uint16",
          "name": "_durationInMonths",
          "type": "uint16"
        },
        {
          "internalType": "address",
          "name": "_creator",
          "type": "address"
        }
      ],
      "name": "createPool",
      "outputs": [],
      "stateMutability": "payable",
      "type": "function"
    },
    {
      "inputs": [],
      "name": "forwardAllFunds",
      "outputs": [],
      "stateMutability": "nonpayable",
      "type": "function"
    },
    {
      "inputs": [
        {
          "internalType": "uint256",
          "name": "poolId",
          "type": "uint256"
        },
        {
          "internalType": "uint256",
          "name": "amount",
          "type": "uint256"
        }
      ],
      "name": "fundPool",
      "outputs": [],
      "stateMutability": "payable",
      "type": "function"
    },
    {
      "inputs": [
        {
          "internalType": "uint256",
          "name": "poolId",
          "type": "uint256"
        }
      ],
      "name": "getPoolBalance",
      "outputs": [
        {
          "internalType": "uint256",
          "name": "",
          "type": "uint256"
        }
      ],
      "stateMutability": "view",
      "type": "function"
    },
    {
      "inputs": [],
      "name": "isPaused",
      "outputs": [
        {
          "internalType": "bool",
          "name": "",
          "type": "bool"
        }
      ],
      "stateMutability": "view",
      "type": "function"
    },
    {
      "inputs": [],
      "name": "lendingPoolAddress",
      "outputs": [
        {
          "internalType": "address payable",
          "name": "",
          "type": "address"
        }
      ],
      "stateMutability": "view",
      "type": "function"
    },
    {
      "inputs": [
        {
          "internalType": "address",
          "name": "",
          "type": "address"
        },
        {
          "internalType": "address",
          "name": "",
          "type": "address"
        },
        {
          "internalType": "uint256",
          "name": "",
          "type": "uint256"
        },
        {
          "internalType": "bytes",
          "name": "",
          "type": "bytes"
        }
      ],
      "name": "onERC721Received",
      "outputs": [
        {
          "internalType": "bytes4",
          "name": "",
          "type": "bytes4"
        }
      ],
      "stateMutability": "pure",
      "type": "function"
    },
    {
      "inputs": [],
      "name": "owner",
      "outputs": [
        {
          "internalType": "address",
          "name": "",
          "type": "address"
        }
      ],
      "stateMutability": "view",
      "type": "function"
    },
    {
      "inputs": [
        {
          "internalType": "address",
          "name": "tokenAddress",
          "type": "address"
        },
        {
          "internalType": "uint256",
          "name": "tokenId",
          "type": "uint256"
        },
        {
          "internalType": "uint256",
          "name": "downPaymentAmount",
          "type": "uint256"
        },
        {
          "internalType": "uint256",
          "name": "principal",
          "type": "uint256"
        },
        {
          "internalType": "uint256",
          "name": "poolId",
          "type": "uint256"
        }
      ],
      "name": "purchaseNFT",
      "outputs": [],
      "stateMutability": "payable",
      "type": "function"
    },
    {
      "inputs": [],
      "name": "qredosStoreAddress",
      "outputs": [
        {
          "internalType": "address",
          "name": "",
          "type": "address"
        }
      ],
      "stateMutability": "view",
      "type": "function"
    },
    {
      "inputs": [
        {
          "internalType": "uint256",
          "name": "purchaseId",
          "type": "uint256"
        },
        {
          "internalType": "uint256",
          "name": "liquidationId",
          "type": "uint256"
        }
      ],
      "name": "refundBorrower",
      "outputs": [],
      "stateMutability": "nonpayable",
      "type": "function"
    },
    {
      "inputs": [],
      "name": "renounceOwnership",
      "outputs": [],
      "stateMutability": "nonpayable",
      "type": "function"
    },
    {
      "inputs": [
        {
          "internalType": "uint256",
          "name": "purchaseId",
          "type": "uint256"
        },
        {
          "internalType": "enum Schema.LoanRepaymentType",
          "name": "repaymentType",
          "type": "uint8"
        },
        {
          "internalType": "uint256",
          "name": "poolId",
          "type": "uint256"
        }
      ],
      "name": "repayLoan",
      "outputs": [],
      "stateMutability": "payable",
      "type": "function"
    },
    {
      "inputs": [
        {
          "internalType": "uint256",
          "name": "purchaseId",
          "type": "uint256"
        },
        {
          "internalType": "uint256",
          "name": "discountAmount",
          "type": "uint256"
        },
        {
          "internalType": "uint256",
          "name": "currentNftPrice",
          "type": "uint256"
        },
        {
          "internalType": "address",
          "name": "borrowerAddress",
          "type": "address"
        }
      ],
      "name": "startLiquidation",
      "outputs": [],
      "stateMutability": "nonpayable",
      "type": "function"
    },
    {
      "inputs": [],
      "name": "toggleIsPaused",
      "outputs": [],
      "stateMutability": "nonpayable",
      "type": "function"
    },
    {
      "inputs": [
        {
          "internalType": "address",
          "name": "newOwner",
          "type": "address"
        }
      ],
      "name": "transferOwnership",
      "outputs": [],
      "stateMutability": "nonpayable",
      "type": "function"
    },
    {
      "stateMutability": "payable",
      "type": "receive"
    }
  ],
  "bytecode": "0x60806040523480156200001157600080fd5b5060405162006a9b38038062006a9b833981810160405281019062000037919062000214565b620000576200004b6200011a60201b60201c565b6200012260201b60201c565b81600160006101000a81548173ffffffffffffffffffffffffffffffffffffffff021916908373ffffffffffffffffffffffffffffffffffffffff16021790555080600260006101000a81548173ffffffffffffffffffffffffffffffffffffffff021916908373ffffffffffffffffffffffffffffffffffffffff1602179055507f857fc3097560743875118f7f0620841c9d5fdc43f7c3f6ac470d61973eaaa81d826040516200010a919062000266565b60405180910390a150506200033b565b600033905090565b60008060009054906101000a900473ffffffffffffffffffffffffffffffffffffffff169050816000806101000a81548173ffffffffffffffffffffffffffffffffffffffff021916908373ffffffffffffffffffffffffffffffffffffffff1602179055508173ffffffffffffffffffffffffffffffffffffffff168173ffffffffffffffffffffffffffffffffffffffff167f8be0079c531659141344cd1fd0a4f28419497f9722a3daafe3b4186f6b6457e060405160405180910390a35050565b600081519050620001f78162000307565b92915050565b6000815190506200020e8162000321565b92915050565b600080604083850312156200022857600080fd5b60006200023885828601620001fd565b92505060206200024b85828601620001e6565b9150509250929050565b6200026081620002cb565b82525050565b60006020820190506200027d600083018462000255565b92915050565b60006200029082620002ab565b9050919050565b6000620002a482620002ab565b9050919050565b600073ffffffffffffffffffffffffffffffffffffffff82169050919050565b6000620002d882620002df565b9050919050565b6000620002ec82620002f3565b9050919050565b60006200030082620002ab565b9050919050565b620003128162000283565b81146200031e57600080fd5b50565b6200032c8162000297565b81146200033857600080fd5b50565b616750806200034b6000396000f3fe6080604052600436106200014b5760003560e01c80638da5cb5b11620000bb578063da2488cd1162000079578063da2488cd14620003c8578063da297df214620003f6578063ed1375d51462000416578063f2fde38b146200045a578063f9613d7f1462000488578063ff9311a014620004a25762000153565b80638da5cb5b14620002dc5780639c0b7b5c146200030c5780639d5e2eeb146200033a578063b187bd261462000368578063d3ae26b314620003985762000153565b80636279ce6c11620001095780636279ce6c146200023a57806370a883ca1462000254578063715018a614620002745780637d0812b9146200028e57806383b1877614620002ae5762000153565b8063150b7a0214620001585780632280b3d2146200019c57806325e235ff14620001cc578063553c69b414620001fa5780635acd6fac146200021a5762000153565b366200015357005b600080fd5b3480156200016557600080fd5b506200018460048036038101906200017e9190620040a4565b620004e6565b60405162000193919062004c02565b60405180910390f35b348015620001a957600080fd5b50620001b4620004fb565b604051620001c3919062004a46565b60405180910390f35b348015620001d957600080fd5b50620001f86004803603810190620001f291906200443e565b62000521565b005b620002186004803603810190620002129190620043a8565b62000939565b005b6200023860048036038101906200023291906200443e565b62000b4e565b005b3480156200024757600080fd5b506200025262000d54565b005b6200027260048036038101906200026c919062004352565b62000e1d565b005b3480156200028157600080fd5b506200028c620015e0565b005b620002ac6004803603810190620002a6919062004311565b620015f8565b005b348015620002bb57600080fd5b50620002da6004803603810190620002d49190620042b9565b62001b59565b005b348015620002e957600080fd5b50620002f46200209c565b60405162000303919062004a46565b60405180910390f35b3480156200031957600080fd5b506200033860048036038101906200033291906200443e565b620020c5565b005b3480156200034757600080fd5b506200036660048036038101906200036091906200447f565b62002370565b005b3480156200037557600080fd5b50620003806200252b565b6040516200038f919062004be5565b60405180910390f35b348015620003a557600080fd5b50620003b06200253e565b604051620003bf919062004a63565b60405180910390f35b348015620003d557600080fd5b50620003f46004803603810190620003ee919062004311565b62002564565b005b6200041460048036038101906200040e91906200412e565b620028eb565b005b3480156200042357600080fd5b506200044260048036038101906200043c9190620042b9565b6200300d565b60405162000451919062004ed3565b60405180910390f35b3480156200046757600080fd5b506200048660048036038101906200048091906200404c565b620030c7565b005b3480156200049557600080fd5b50620004a062003152565b005b348015620004af57600080fd5b50620004ce6004803603810190620004c891906200443e565b62003188565b604051620004dd919062004ed3565b60405180910390f35b600063150b7a0260e01b905095945050505050565b600260009054906101000a900473ffffffffffffffffffffffffffffffffffffffff1681565b600260149054906101000a900460ff161562000574576040517f08c379a00000000000000000000000000000000000000000000000000000000081526004016200056b9062004d95565b60405180910390fd5b6000600260009054906101000a900473ffffffffffffffffffffffffffffffffffffffff1673ffffffffffffffffffffffffffffffffffffffff1663dfd7f4ae33856040518363ffffffff1660e01b8152600401620005d592919062004a80565b60e06040518083038186803b158015620005ee57600080fd5b505afa15801562000603573d6000803e3d6000fd5b505050506040513d601f19601f8201168201806040525081019062000629919062004261565b90506000600160009054906101000a900473ffffffffffffffffffffffffffffffffffffffff1673ffffffffffffffffffffffffffffffffffffffff1663d22368676040518163ffffffff1660e01b815260040160206040518083038186803b1580156200069657600080fd5b505afa158015620006ab573d6000803e3d6000fd5b505050506040513d601f19601f82011682018060405250810190620006d1919062004078565b73ffffffffffffffffffffffffffffffffffffffff16636bac63728484600001516040518363ffffffff1660e01b81526004016200071192919062004fe4565b60c06040518083038186803b1580156200072a57600080fd5b505afa1580156200073f573d6000803e3d6000fd5b505050506040513d601f19601f8201168201806040525081019062000765919062004208565b9050600180811115620007a1577f4e487b7100000000000000000000000000000000000000000000000000000000600052602160045260246000fd5b81608001516001811115620007df577f4e487b7100000000000000000000000000000000000000000000000000000000600052602160045260246000fd5b1462000822576040517f08c379a0000000000000000000000000000000000000000000000000000000008152600401620008199062004d0d565b60405180910390fd5b816040015173ffffffffffffffffffffffffffffffffffffffff16631e83409a336040518263ffffffff1660e01b815260040162000861919062004a46565b602060405180830381600087803b1580156200087c57600080fd5b505af115801562000891573d6000803e3d6000fd5b505050506040513d601f19601f82011682018060405250810190620008b79190620041b0565b620008f9576040517f08c379a0000000000000000000000000000000000000000000000000000000008152600401620008f09062004dd9565b60405180910390fd5b837fec5f0dee1fc3c7beab746dbd5883eee3f1c9bc07fe02dd318c553c5243f52fea336040516200092b919062004a46565b60405180910390a250505050565b600260149054906101000a900460ff16156200098c576040517f08c379a0000000000000000000000000000000000000000000000000000000008152600401620009839062004d95565b60405180910390fd5b85341015620009d2576040517f08c379a0000000000000000000000000000000000000000000000000000000008152600401620009c99062004e1d565b60405180910390fd5b600080600160009054906101000a900473ffffffffffffffffffffffffffffffffffffffff1673ffffffffffffffffffffffffffffffffffffffff168860405162000a1d9062004a2f565b60006040518083038185875af1925050503d806000811462000a5c576040519150601f19603f3d011682016040523d82523d6000602084013e62000a61565b606091505b50915091508162000aa9576040517f08c379a000000000000000000000000000000000000000000000000000000000815260040162000aa09062004ceb565b60405180910390fd5b600160009054906101000a900473ffffffffffffffffffffffffffffffffffffffff1673ffffffffffffffffffffffffffffffffffffffff1663553c69b48989898989896040518763ffffffff1660e01b815260040162000b109695949392919062004f77565b600060405180830381600087803b15801562000b2b57600080fd5b505af115801562000b40573d6000803e3d6000fd5b505050505050505050505050565b600260149054906101000a900460ff161562000ba1576040517f08c379a000000000000000000000000000000000000000000000000000000000815260040162000b989062004d95565b60405180910390fd5b8034101562000be7576040517f08c379a000000000000000000000000000000000000000000000000000000000815260040162000bde9062004e1d565b60405180910390fd5b6000600160009054906101000a900473ffffffffffffffffffffffffffffffffffffffff1673ffffffffffffffffffffffffffffffffffffffff168260405162000c319062004a2f565b60006040518083038185875af1925050503d806000811462000c70576040519150601f19603f3d011682016040523d82523d6000602084013e62000c75565b606091505b505090508062000cbc576040517f08c379a000000000000000000000000000000000000000000000000000000000815260040162000cb39062004ceb565b60405180910390fd5b600160009054906101000a900473ffffffffffffffffffffffffffffffffffffffff1673ffffffffffffffffffffffffffffffffffffffff16635acd6fac84846040518363ffffffff1660e01b815260040162000d1b92919062004fe4565b600060405180830381600087803b15801562000d3657600080fd5b505af115801562000d4b573d6000803e3d6000fd5b50505050505050565b62000d5e620039bd565b600062000d6a6200209c565b73ffffffffffffffffffffffffffffffffffffffff164760405162000d8f9062004a2f565b60006040518083038185875af1925050503d806000811462000dce576040519150601f19603f3d011682016040523d82523d6000602084013e62000dd3565b606091505b505090508062000e1a576040517f08c379a000000000000000000000000000000000000000000000000000000000815260040162000e119062004e61565b60405180910390fd5b50565b600260149054906101000a900460ff161562000e70576040517f08c379a000000000000000000000000000000000000000000000000000000000815260040162000e679062004d95565b60405180910390fd5b6000600260009054906101000a900473ffffffffffffffffffffffffffffffffffffffff1673ffffffffffffffffffffffffffffffffffffffff1663dfd7f4ae33866040518363ffffffff1660e01b815260040162000ed192919062004a80565b60e06040518083038186803b15801562000eea57600080fd5b505afa15801562000eff573d6000803e3d6000fd5b505050506040513d601f19601f8201168201806040525081019062000f25919062004261565b90506000600181111562000f62577f4e487b7100000000000000000000000000000000000000000000000000000000600052602160045260246000fd5b83600181111562000f9c577f4e487b7100000000000000000000000000000000000000000000000000000000600052602160045260246000fd5b141562001283576000600160009054906101000a900473ffffffffffffffffffffffffffffffffffffffff1673ffffffffffffffffffffffffffffffffffffffff1663d30f96cb8360000151856040518363ffffffff1660e01b81526004016200100892919062004fe4565b60206040518083038186803b1580156200102157600080fd5b505afa15801562001036573d6000803e3d6000fd5b505050506040513d601f19601f820116820180604052508101906200105c9190620042e5565b905080341015620010a4576040517f08c379a00000000000000000000000000000000000000000000000000000000081526004016200109b9062004e1d565b60405180910390fd5b6000600160009054906101000a900473ffffffffffffffffffffffffffffffffffffffff1673ffffffffffffffffffffffffffffffffffffffff1682604051620010ee9062004a2f565b60006040518083038185875af1925050503d80600081146200112d576040519150601f19603f3d011682016040523d82523d6000602084013e62001132565b606091505b505090508062001179576040517f08c379a0000000000000000000000000000000000000000000000000000000008152600401620011709062004ceb565b60405180910390fd5b6000600160009054906101000a900473ffffffffffffffffffffffffffffffffffffffff1673ffffffffffffffffffffffffffffffffffffffff1663c60bffc7856000015185886040518463ffffffff1660e01b8152600401620011e0939291906200504e565b602060405180830381600087803b158015620011fb57600080fd5b505af115801562001210573d6000803e3d6000fd5b505050506040513d601f19601f82011682018060405250810190620012369190620042e5565b90508360000151817f5f3b53e81cd16b078bd648ad759c36c3b66dee302039ba48d4ad37de61dba7bb8560006040516200127292919062004f1d565b60405180910390a3505050620015da565b600180811115620012bd577f4e487b7100000000000000000000000000000000000000000000000000000000600052602160045260246000fd5b836001811115620012f7577f4e487b7100000000000000000000000000000000000000000000000000000000600052602160045260246000fd5b1415620015d9576000600160009054906101000a900473ffffffffffffffffffffffffffffffffffffffff1673ffffffffffffffffffffffffffffffffffffffff16636cd5ffa88360000151856040518363ffffffff1660e01b81526004016200136392919062004fe4565b60206040518083038186803b1580156200137c57600080fd5b505afa15801562001391573d6000803e3d6000fd5b505050506040513d601f19601f82011682018060405250810190620013b79190620042e5565b905080341015620013ff576040517f08c379a0000000000000000000000000000000000000000000000000000000008152600401620013f69062004e1d565b60405180910390fd5b6000600160009054906101000a900473ffffffffffffffffffffffffffffffffffffffff1673ffffffffffffffffffffffffffffffffffffffff1682604051620014499062004a2f565b60006040518083038185875af1925050503d806000811462001488576040519150601f19603f3d011682016040523d82523d6000602084013e6200148d565b606091505b5050905080620014d4576040517f08c379a0000000000000000000000000000000000000000000000000000000008152600401620014cb9062004ceb565b60405180910390fd5b6000600160009054906101000a900473ffffffffffffffffffffffffffffffffffffffff1673ffffffffffffffffffffffffffffffffffffffff166399f6bccb856000015185886040518463ffffffff1660e01b81526004016200153b939291906200504e565b602060405180830381600087803b1580156200155657600080fd5b505af11580156200156b573d6000803e3d6000fd5b505050506040513d601f19601f82011682018060405250810190620015919190620042e5565b90508360000151817f5f3b53e81cd16b078bd648ad759c36c3b66dee302039ba48d4ad37de61dba7bb856001604051620015cd92919062004f1d565b60405180910390a35050505b5b50505050565b620015ea620039bd565b620015f6600062003a42565b565b600260149054906101000a900460ff16156200164b576040517f08c379a0000000000000000000000000000000000000000000000000000000008152600401620016429062004d95565b60405180910390fd5b6000600260009054906101000a900473ffffffffffffffffffffffffffffffffffffffff1673ffffffffffffffffffffffffffffffffffffffff1663500db2a6846040518263ffffffff1660e01b8152600401620016aa919062004ed3565b60a06040518083038186803b158015620016c357600080fd5b505afa158015620016d8573d6000803e3d6000fd5b505050506040513d601f19601f82011682018060405250810190620016fe9190620041dc565b90506000600260009054906101000a900473ffffffffffffffffffffffffffffffffffffffff1673ffffffffffffffffffffffffffffffffffffffff1663dfd7f4ae8484600001516040518363ffffffff1660e01b81526004016200176592919062004a80565b60e06040518083038186803b1580156200177e57600080fd5b505afa15801562001793573d6000803e3d6000fd5b505050506040513d601f19601f82011682018060405250810190620017b9919062004261565b9050816040015134101562001805576040517f08c379a0000000000000000000000000000000000000000000000000000000008152600401620017fc9062004e1d565b60405180910390fd5b6000600160009054906101000a900473ffffffffffffffffffffffffffffffffffffffff1673ffffffffffffffffffffffffffffffffffffffff168360400151604051620018539062004a2f565b60006040518083038185875af1925050503d806000811462001892576040519150601f19603f3d011682016040523d82523d6000602084013e62001897565b606091505b5050905080620018de576040517f08c379a0000000000000000000000000000000000000000000000000000000008152600401620018d59062004ceb565b60405180910390fd5b816040015173ffffffffffffffffffffffffffffffffffffffff16631e83409a336040518263ffffffff1660e01b81526004016200191d919062004a46565b602060405180830381600087803b1580156200193857600080fd5b505af11580156200194d573d6000803e3d6000fd5b505050506040513d601f19601f82011682018060405250810190620019739190620041b0565b620019b5576040517f08c379a0000000000000000000000000000000000000000000000000000000008152600401620019ac9062004e3f565b60405180910390fd5b600260009054906101000a900473ffffffffffffffffffffffffffffffffffffffff1673ffffffffffffffffffffffffffffffffffffffff16631fa400068460000151856040015188600188602001516040518663ffffffff1660e01b815260040162001a279594939291906200508b565b600060405180830381600087803b15801562001a4257600080fd5b505af115801562001a57573d6000803e3d6000fd5b50505050600260009054906101000a900473ffffffffffffffffffffffffffffffffffffffff1673ffffffffffffffffffffffffffffffffffffffff166341eb24b18585600001518560000151866020015187604001518860600151896080015160036040518963ffffffff1660e01b815260040162001adf98979695949392919062004b57565b600060405180830381600087803b15801562001afa57600080fd5b505af115801562001b0f573d6000803e3d6000fd5b505050508483600001517f10f0eb5bec4048bc2147c3eff0d6bb1ea88c96d7daf1e0ec6174e60f3d2d6b363360405162001b4a919062004a46565b60405180910390a35050505050565b600260149054906101000a900460ff161562001bac576040517f08c379a000000000000000000000000000000000000000000000000000000000815260040162001ba39062004d95565b60405180910390fd5b6000600260009054906101000a900473ffffffffffffffffffffffffffffffffffffffff1673ffffffffffffffffffffffffffffffffffffffff1663dfd7f4ae33846040518363ffffffff1660e01b815260040162001c0d92919062004a80565b60e06040518083038186803b15801562001c2657600080fd5b505afa15801562001c3b573d6000803e3d6000fd5b505050506040513d601f19601f8201168201806040525081019062001c61919062004261565b90503073ffffffffffffffffffffffffffffffffffffffff16816060015173ffffffffffffffffffffffffffffffffffffffff16636352211e83608001516040518263ffffffff1660e01b815260040162001cbd919062004ed3565b60206040518083038186803b15801562001cd657600080fd5b505afa15801562001ceb573d6000803e3d6000fd5b505050506040513d601f19601f8201168201806040525081019062001d11919062004078565b73ffffffffffffffffffffffffffffffffffffffff161462001d6a576040517f08c379a000000000000000000000000000000000000000000000000000000000815260040162001d619062004d51565b60405180910390fd5b6000308260800151836060015160405162001d859062003c03565b62001d939392919062004aad565b604051809103906000f08015801562001db0573d6000803e3d6000fd5b5090503073ffffffffffffffffffffffffffffffffffffffff168173ffffffffffffffffffffffffffffffffffffffff16638da5cb5b6040518163ffffffff1660e01b815260040160206040518083038186803b15801562001e1157600080fd5b505afa15801562001e26573d6000803e3d6000fd5b505050506040513d601f19601f8201168201806040525081019062001e4c919062004078565b73ffffffffffffffffffffffffffffffffffffffff161462001ea5576040517f08c379a000000000000000000000000000000000000000000000000000000000815260040162001e9c9062004c85565b60405180910390fd5b816060015173ffffffffffffffffffffffffffffffffffffffff1663095ea7b38284608001516040518363ffffffff1660e01b815260040162001eea92919062004a80565b600060405180830381600087803b15801562001f0557600080fd5b505af115801562001f1a573d6000803e3d6000fd5b505050508073ffffffffffffffffffffffffffffffffffffffff16636e553f65836080015184606001516040518363ffffffff1660e01b815260040162001f6392919062004ef0565b602060405180830381600087803b15801562001f7e57600080fd5b505af115801562001f93573d6000803e3d6000fd5b505050506040513d601f19601f8201168201806040525081019062001fb99190620041b0565b50600260009054906101000a900473ffffffffffffffffffffffffffffffffffffffff1673ffffffffffffffffffffffffffffffffffffffff166341eb24b1338585600001518660200151868860600151896080015160016040518963ffffffff1660e01b81526004016200203698979695949392919062004b57565b600060405180830381600087803b1580156200205157600080fd5b505af115801562002066573d6000803e3d6000fd5b50505050827f5d2e146c95f4ec58ed7e1dc5cc4f32ff5ffdd304fdd34cfd84a930d39f1f5e7260405160405180910390a2505050565b60008060009054906101000a900473ffffffffffffffffffffffffffffffffffffffff16905090565b600260149054906101000a900460ff161562002118576040517f08c379a00000000000000000000000000000000000000000000000000000000081526004016200210f9062004d95565b60405180910390fd5b6000600260009054906101000a900473ffffffffffffffffffffffffffffffffffffffff1673ffffffffffffffffffffffffffffffffffffffff1663dfd7f4ae33856040518363ffffffff1660e01b81526004016200217992919062004a80565b60e06040518083038186803b1580156200219257600080fd5b505afa158015620021a7573d6000803e3d6000fd5b505050506040513d601f19601f82011682018060405250810190620021cd919062004261565b9050600360048111156200220a577f4e487b7100000000000000000000000000000000000000000000000000000000600052602160045260246000fd5b8160a00151600481111562002248577f4e487b7100000000000000000000000000000000000000000000000000000000600052602160045260246000fd5b146200228b576040517f08c379a0000000000000000000000000000000000000000000000000000000008152600401620022829062004db7565b60405180910390fd5b600062002299848462003188565b9050600160009054906101000a900473ffffffffffffffffffffffffffffffffffffffff1673ffffffffffffffffffffffffffffffffffffffff1663413e167733836040518363ffffffff1660e01b8152600401620022fa92919062004a80565b600060405180830381600087803b1580156200231557600080fd5b505af11580156200232a573d6000803e3d6000fd5b50505050837fb5947234d9d981e6dc885e516b3a8cabc0aded467c00d88a12aea0402fb37a5333836040516200236292919062004a80565b60405180910390a250505050565b6200237a620039bd565b600260009054906101000a900473ffffffffffffffffffffffffffffffffffffffff1673ffffffffffffffffffffffffffffffffffffffff1663dfd7f4ae82866040518363ffffffff1660e01b8152600401620023d992919062004a80565b60e06040518083038186803b158015620023f257600080fd5b505afa15801562002407573d6000803e3d6000fd5b505050506040513d601f19601f820116820180604052508101906200242d919062004261565b506000600260009054906101000a900473ffffffffffffffffffffffffffffffffffffffff1673ffffffffffffffffffffffffffffffffffffffff1663955af5c38686866040518463ffffffff1660e01b815260040162002491939291906200504e565b602060405180830381600087803b158015620024ac57600080fd5b505af1158015620024c1573d6000803e3d6000fd5b505050506040513d601f19601f82011682018060405250810190620024e79190620042e5565b905080857f1999b5cf4c86a262821b1ab4825d62e65f2350bc1f6476d25352cb4a2202f304866040516200251c919062004ed3565b60405180910390a35050505050565b600260149054906101000a900460ff1681565b600160009054906101000a900473ffffffffffffffffffffffffffffffffffffffff1681565b600260149054906101000a900460ff1615620025b7576040517f08c379a0000000000000000000000000000000000000000000000000000000008152600401620025ae9062004d95565b60405180910390fd5b6000600160009054906101000a900473ffffffffffffffffffffffffffffffffffffffff1673ffffffffffffffffffffffffffffffffffffffff1663d22368676040518163ffffffff1660e01b815260040160206040518083038186803b1580156200262257600080fd5b505afa15801562002637573d6000803e3d6000fd5b505050506040513d601f19601f820116820180604052508101906200265d919062004078565b73ffffffffffffffffffffffffffffffffffffffff16635055149c846040518263ffffffff1660e01b815260040162002697919062004ed3565b6101006040518083038186803b158015620026b157600080fd5b505afa158015620026c6573d6000803e3d6000fd5b505050506040513d601f19601f82011682018060405250810190620026ec919062004234565b90508060a0015173ffffffffffffffffffffffffffffffffffffffff163373ffffffffffffffffffffffffffffffffffffffff161462002763576040517f08c379a00000000000000000000000000000000000000000000000000000000081526004016200275a9062004e83565b60405180910390fd5b6000600160009054906101000a900473ffffffffffffffffffffffffffffffffffffffff1673ffffffffffffffffffffffffffffffffffffffff1663139d179f856040518263ffffffff1660e01b8152600401620027c2919062004ed3565b60206040518083038186803b158015620027db57600080fd5b505afa158015620027f0573d6000803e3d6000fd5b505050506040513d601f19601f82011682018060405250810190620028169190620042e5565b9050600160009054906101000a900473ffffffffffffffffffffffffffffffffffffffff1673ffffffffffffffffffffffffffffffffffffffff1663da2488cd85856040518363ffffffff1660e01b81526004016200287792919062004ef0565b600060405180830381600087803b1580156200289257600080fd5b505af1158015620028a7573d6000803e3d6000fd5b50505050837faf7faf29a251efa1bcf2b47dab1a72baa0906a2e4ff957e6cb6d4f7c642161ab82604051620028dd919062004ed3565b60405180910390a250505050565b600260149054906101000a900460ff16156200293e576040517f08c379a0000000000000000000000000000000000000000000000000000000008152600401620029359062004d95565b60405180910390fd5b600073ffffffffffffffffffffffffffffffffffffffff168573ffffffffffffffffffffffffffffffffffffffff161415620029b1576040517f08c379a0000000000000000000000000000000000000000000000000000000008152600401620029a89062004c41565b60405180910390fd5b6000600160009054906101000a900473ffffffffffffffffffffffffffffffffffffffff1673ffffffffffffffffffffffffffffffffffffffff1663d22368676040518163ffffffff1660e01b815260040160206040518083038186803b15801562002a1c57600080fd5b505afa15801562002a31573d6000803e3d6000fd5b505050506040513d601f19601f8201168201806040525081019062002a57919062004078565b90508073ffffffffffffffffffffffffffffffffffffffff16635055149c836040518263ffffffff1660e01b815260040162002a94919062004ed3565b6101006040518083038186803b15801562002aae57600080fd5b505afa15801562002ac3573d6000803e3d6000fd5b505050506040513d601f19601f8201168201806040525081019062002ae9919062004234565b5062002af6848462003b06565b62002b38576040517f08c379a000000000000000000000000000000000000000000000000000000000815260040162002b2f9062004d2f565b60405180910390fd5b82600160009054906101000a900473ffffffffffffffffffffffffffffffffffffffff1673ffffffffffffffffffffffffffffffffffffffff1663d060f501846040518263ffffffff1660e01b815260040162002b96919062004ed3565b60206040518083038186803b15801562002baf57600080fd5b505afa15801562002bc4573d6000803e3d6000fd5b505050506040513d601f19601f8201168201806040525081019062002bea9190620042e5565b1162002c2d576040517f08c379a000000000000000000000000000000000000000000000000000000000815260040162002c249062004ca7565b60405180910390fd5b8334101562002c73576040517f08c379a000000000000000000000000000000000000000000000000000000000815260040162002c6a9062004cc9565b60405180910390fd5b6000600160009054906101000a900473ffffffffffffffffffffffffffffffffffffffff1673ffffffffffffffffffffffffffffffffffffffff166322385ed48585336040518463ffffffff1660e01b815260040162002cd69392919062005011565b602060405180830381600087803b15801562002cf157600080fd5b505af115801562002d06573d6000803e3d6000fd5b505050506040513d601f19601f8201168201806040525081019062002d2c9190620042e5565b9050838562002d3c91906200512d565b47101562002d81576040517f08c379a000000000000000000000000000000000000000000000000000000000815260040162002d789062004c1f565b60405180910390fd5b600062002d8d6200209c565b73ffffffffffffffffffffffffffffffffffffffff16858762002db191906200512d565b60405162002dbf9062004a2f565b60006040518083038185875af1925050503d806000811462002dfe576040519150601f19603f3d011682016040523d82523d6000602084013e62002e03565b606091505b505090508062002e4a576040517f08c379a000000000000000000000000000000000000000000000000000000000815260040162002e419062004dfb565b60405180910390fd5b6000600260009054906101000a900473ffffffffffffffffffffffffffffffffffffffff1673ffffffffffffffffffffffffffffffffffffffff1663e7aa2df633858860008e8e6040518763ffffffff1660e01b815260040162002eb49695949392919062004aea565b602060405180830381600087803b15801562002ecf57600080fd5b505af115801562002ee4573d6000803e3d6000fd5b505050506040513d601f19601f8201168201806040525081019062002f0a9190620042e5565b9050803373ffffffffffffffffffffffffffffffffffffffff167fd825c95624e3d9df6a1a2617ef81f3054120ace1880a51e6e51ef7415ac4a66589600260009054906101000a900473ffffffffffffffffffffffffffffffffffffffff1673ffffffffffffffffffffffffffffffffffffffff16637453275b6040518163ffffffff1660e01b815260040160206040518083038186803b15801562002faf57600080fd5b505afa15801562002fc4573d6000803e3d6000fd5b505050506040513d601f19601f8201168201806040525081019062002fea91906200428d565b60405162002ffa92919062004f4a565b60405180910390a3505050505050505050565b6000600160009054906101000a900473ffffffffffffffffffffffffffffffffffffffff1673ffffffffffffffffffffffffffffffffffffffff1663d060f501836040518263ffffffff1660e01b81526004016200306c919062004ed3565b60206040518083038186803b1580156200308557600080fd5b505afa1580156200309a573d6000803e3d6000fd5b505050506040513d601f19601f82011682018060405250810190620030c09190620042e5565b9050919050565b620030d1620039bd565b600073ffffffffffffffffffffffffffffffffffffffff168173ffffffffffffffffffffffffffffffffffffffff16141562003144576040517f08c379a00000000000000000000000000000000000000000000000000000000081526004016200313b9062004c63565b60405180910390fd5b6200314f8162003a42565b50565b6200315c620039bd565b600260149054906101000a900460ff1615600260146101000a81548160ff021916908315150217905550565b600080600260009054906101000a900473ffffffffffffffffffffffffffffffffffffffff1673ffffffffffffffffffffffffffffffffffffffff1663dfd7f4ae33866040518363ffffffff1660e01b8152600401620031ea92919062004a80565b60e06040518083038186803b1580156200320357600080fd5b505afa15801562003218573d6000803e3d6000fd5b505050506040513d601f19601f820116820180604052508101906200323e919062004261565b90506000600160009054906101000a900473ffffffffffffffffffffffffffffffffffffffff1673ffffffffffffffffffffffffffffffffffffffff1663d22368676040518163ffffffff1660e01b815260040160206040518083038186803b158015620032ab57600080fd5b505afa158015620032c0573d6000803e3d6000fd5b505050506040513d601f19601f82011682018060405250810190620032e6919062004078565b73ffffffffffffffffffffffffffffffffffffffff16636bac6372836020015184600001516040518363ffffffff1660e01b81526004016200332a92919062004fe4565b60c06040518083038186803b1580156200334357600080fd5b505afa15801562003358573d6000803e3d6000fd5b505050506040513d601f19601f820116820180604052508101906200337e919062004208565b90506000600160009054906101000a900473ffffffffffffffffffffffffffffffffffffffff1673ffffffffffffffffffffffffffffffffffffffff1663d22368676040518163ffffffff1660e01b815260040160206040518083038186803b158015620033eb57600080fd5b505afa15801562003400573d6000803e3d6000fd5b505050506040513d601f19601f8201168201806040525081019062003426919062004078565b73ffffffffffffffffffffffffffffffffffffffff16635055149c83600001516040518263ffffffff1660e01b815260040162003464919062004ed3565b6101006040518083038186803b1580156200347e57600080fd5b505afa15801562003493573d6000803e3d6000fd5b505050506040513d601f19601f82011682018060405250810190620034b9919062004234565b90506000600260009054906101000a900473ffffffffffffffffffffffffffffffffffffffff1673ffffffffffffffffffffffffffffffffffffffff1663500db2a6876040518263ffffffff1660e01b81526004016200351a919062004ed3565b60a06040518083038186803b1580156200353357600080fd5b505afa15801562003548573d6000803e3d6000fd5b505050506040513d601f19601f820116820180604052508101906200356e9190620041dc565b90506000836040015190506000600160009054906101000a900473ffffffffffffffffffffffffffffffffffffffff1673ffffffffffffffffffffffffffffffffffffffff1663341d8cd986866040518363ffffffff1660e01b8152600401620035da92919062004ea5565b60206040518083038186803b158015620035f357600080fd5b505afa15801562003608573d6000803e3d6000fd5b505050506040513d601f19601f820116820180604052508101906200362e9190620042e5565b90506000600160009054906101000a900473ffffffffffffffffffffffffffffffffffffffff1673ffffffffffffffffffffffffffffffffffffffff1663d22368676040518163ffffffff1660e01b815260040160206040518083038186803b1580156200369b57600080fd5b505afa158015620036b0573d6000803e3d6000fd5b505050506040513d601f19601f82011682018060405250810190620036d6919062004078565b73ffffffffffffffffffffffffffffffffffffffff1663672e4d6e88600001516040518263ffffffff1660e01b815260040162003714919062004ed3565b60206040518083038186803b1580156200372d57600080fd5b505afa15801562003742573d6000803e3d6000fd5b505050506040513d601f19601f82011682018060405250810190620037689190620042e5565b9050600081836200377a9190620051fa565b90506000600160009054906101000a900473ffffffffffffffffffffffffffffffffffffffff1673ffffffffffffffffffffffffffffffffffffffff1663817f203c8a600001518b602001516040518363ffffffff1660e01b8152600401620037e592919062004fe4565b60206040518083038186803b158015620037fe57600080fd5b505afa15801562003813573d6000803e3d6000fd5b505050506040513d601f19601f82011682018060405250810190620038399190620041b0565b156200390a576064600160009054906101000a900473ffffffffffffffffffffffffffffffffffffffff1673ffffffffffffffffffffffffffffffffffffffff16632658bad56040518163ffffffff1660e01b815260040160206040518083038186803b158015620038aa57600080fd5b505afa158015620038bf573d6000803e3d6000fd5b505050506040513d601f19601f82011682018060405250810190620038e59190620042e5565b8960400151620038f69190620051fa565b620039029190620051c2565b90506200390f565b600090505b60028860400151620039229190620051fa565b8660200151101562003990576000866020015160028a60400151620039489190620051fa565b6200395491906200525b565b905080826200396491906200512d565b83876200397291906200512d565b6200397e91906200525b565b9a5050505050505050505050620039b7565b8082866200399f91906200512d565b620039ab91906200525b565b99505050505050505050505b92915050565b620039c762003bfb565b73ffffffffffffffffffffffffffffffffffffffff16620039e76200209c565b73ffffffffffffffffffffffffffffffffffffffff161462003a40576040517f08c379a000000000000000000000000000000000000000000000000000000000815260040162003a379062004d73565b60405180910390fd5b565b60008060009054906101000a900473ffffffffffffffffffffffffffffffffffffffff169050816000806101000a81548173ffffffffffffffffffffffffffffffffffffffff021916908373ffffffffffffffffffffffffffffffffffffffff1602179055508173ffffffffffffffffffffffffffffffffffffffff168173ffffffffffffffffffffffffffffffffffffffff167f8be0079c531659141344cd1fd0a4f28419497f9722a3daafe3b4186f6b6457e060405160405180910390a35050565b600080600260009054906101000a900473ffffffffffffffffffffffffffffffffffffffff1673ffffffffffffffffffffffffffffffffffffffff16637453275b6040518163ffffffff1660e01b815260040160206040518083038186803b15801562003b7257600080fd5b505afa15801562003b87573d6000803e3d6000fd5b505050506040513d601f19601f8201168201806040525081019062003bad91906200428d565b606462003bbb91906200518a565b9050828462003bcb91906200512d565b8161ffff168562003bdd9190620051fa565b141562003bef57600191505062003bf5565b60009150505b92915050565b600033905090565b610cfa8062005a2183390190565b60008135905062003c228162005963565b92915050565b60008151905062003c398162005963565b92915050565b60008151905062003c50816200597d565b92915050565b60008083601f84011262003c6957600080fd5b8235905067ffffffffffffffff81111562003c8357600080fd5b60208301915083600182028301111562003c9c57600080fd5b9250929050565b60008151905062003cb48162005997565b92915050565b60008135905062003ccb81620059a8565b92915050565b60008151905062003ce281620059b9565b92915050565b60008151905062003cf981620059ca565b92915050565b60008151905062003d1081620059db565b92915050565b600060a0828403121562003d2957600080fd5b62003d3560a0620050e8565b9050600062003d478482850162004035565b600083015250602062003d5d8482850162004035565b602083015250604062003d738482850162004035565b604083015250606062003d898482850162003ca3565b606083015250608062003d9f8482850162003c3f565b60808301525092915050565b600060c0828403121562003dbe57600080fd5b62003dca60c0620050e8565b9050600062003ddc8482850162004035565b600083015250602062003df28482850162003c28565b602083015250604062003e088482850162004035565b604083015250606062003e1e8482850162004035565b606083015250608062003e348482850162003cd1565b60808301525060a062003e4a8482850162003c3f565b60a08301525092915050565b6000610100828403121562003e6a57600080fd5b62003e77610100620050e8565b9050600062003e898482850162004035565b600083015250602062003e9f8482850162004007565b602083015250604062003eb58482850162004007565b604083015250606062003ecb8482850162004035565b606083015250608062003ee18482850162004007565b60808301525060a062003ef78482850162003c28565b60a08301525060c062003f0d8482850162003ce8565b60c08301525060e062003f238482850162003c3f565b60e08301525092915050565b600060e0828403121562003f4257600080fd5b62003f4e60e0620050e8565b9050600062003f608482850162004035565b600083015250602062003f768482850162004035565b602083015250604062003f8c8482850162003c28565b604083015250606062003fa28482850162003c28565b606083015250608062003fb88482850162004035565b60808301525060a062003fce8482850162003cff565b60a08301525060c062003fe48482850162003c3f565b60c08301525092915050565b6000813590506200400181620059ec565b92915050565b6000815190506200401881620059ec565b92915050565b6000813590506200402f8162005a06565b92915050565b600081519050620040468162005a06565b92915050565b6000602082840312156200405f57600080fd5b60006200406f8482850162003c11565b91505092915050565b6000602082840312156200408b57600080fd5b60006200409b8482850162003c28565b91505092915050565b600080600080600060808688031215620040bd57600080fd5b6000620040cd8882890162003c11565b9550506020620040e08882890162003c11565b9450506040620040f3888289016200401e565b935050606086013567ffffffffffffffff8111156200411157600080fd5b6200411f8882890162003c56565b92509250509295509295909350565b600080600080600060a086880312156200414757600080fd5b6000620041578882890162003c11565b95505060206200416a888289016200401e565b94505060406200417d888289016200401e565b935050606062004190888289016200401e565b9250506080620041a3888289016200401e565b9150509295509295909350565b600060208284031215620041c357600080fd5b6000620041d38482850162003c3f565b91505092915050565b600060a08284031215620041ef57600080fd5b6000620041ff8482850162003d16565b91505092915050565b600060c082840312156200421b57600080fd5b60006200422b8482850162003dab565b91505092915050565b600061010082840312156200424857600080fd5b6000620042588482850162003e56565b91505092915050565b600060e082840312156200427457600080fd5b6000620042848482850162003f2f565b91505092915050565b600060208284031215620042a057600080fd5b6000620042b08482850162004007565b91505092915050565b600060208284031215620042cc57600080fd5b6000620042dc848285016200401e565b91505092915050565b600060208284031215620042f857600080fd5b6000620043088482850162004035565b91505092915050565b600080604083850312156200432557600080fd5b600062004335858286016200401e565b9250506020620043488582860162003c11565b9150509250929050565b6000806000606084860312156200436857600080fd5b600062004378868287016200401e565b93505060206200438b8682870162003cba565b92505060406200439e868287016200401e565b9150509250925092565b60008060008060008060c08789031215620043c257600080fd5b6000620043d289828a016200401e565b9650506020620043e589828a0162003ff0565b9550506040620043f889828a0162003ff0565b94505060606200440b89828a016200401e565b93505060806200441e89828a0162003ff0565b92505060a06200443189828a0162003c11565b9150509295509295509295565b600080604083850312156200445257600080fd5b600062004462858286016200401e565b925050602062004475858286016200401e565b9150509250929050565b600080600080608085870312156200449657600080fd5b6000620044a6878288016200401e565b9450506020620044b9878288016200401e565b9350506040620044cc878288016200401e565b9250506060620044df8782880162003c11565b91505092959194509250565b620044f681620052aa565b82525050565b620045078162005296565b82525050565b620045188162005296565b82525050565b6200452981620052be565b82525050565b6200453a81620052be565b82525050565b6200454b81620052ca565b82525050565b6200455c8162005397565b82525050565b6200456d81620053ab565b82525050565b6200457e81620053bf565b82525050565b6200458f81620053d3565b82525050565b620045a081620053e7565b82525050565b6000620045b56027836200511c565b9150620045c282620054fe565b604082019050919050565b6000620045dc602c836200511c565b9150620045e9826200554d565b604082019050919050565b6000620046036026836200511c565b915062004610826200559c565b604082019050919050565b60006200462a601d836200511c565b91506200463782620055eb565b602082019050919050565b6000620046516036836200511c565b91506200465e8262005614565b604082019050919050565b6000620046786017836200511c565b9150620046858262005663565b602082019050919050565b60006200469f601d836200511c565b9150620046ac826200568c565b602082019050919050565b6000620046c66021836200511c565b9150620046d382620056b5565b604082019050919050565b6000620046ed6026836200511c565b9150620046fa8262005704565b604082019050919050565b600062004714601c836200511c565b9150620047218262005753565b602082019050919050565b60006200473b6020836200511c565b915062004748826200577c565b602082019050919050565b6000620047626019836200511c565b91506200476f82620057a5565b602082019050919050565b600062004789601d836200511c565b91506200479682620057ce565b602082019050919050565b6000620047b06017836200511c565b9150620047bd82620057f7565b602082019050919050565b6000620047d7601c836200511c565b9150620047e48262005820565b602082019050919050565b6000620047fe6018836200511c565b91506200480b8262005849565b602082019050919050565b60006200482560008362005111565b9150620048328262005872565b600082019050919050565b60006200484c601d836200511c565b9150620048598262005875565b602082019050919050565b6000620048736015836200511c565b915062004880826200589e565b602082019050919050565b60006200489a601e836200511c565b9150620048a782620058c7565b602082019050919050565b60c082016000820151620048ca600085018262004a0d565b506020820151620048df6020850182620044fc565b506040820151620048f4604085018262004a0d565b50606082015162004909606085018262004a0d565b5060808201516200491e608085018262004573565b5060a08201516200493360a08501826200451e565b50505050565b6101008201600082015162004952600085018262004a0d565b506020820151620049676020850182620049eb565b5060408201516200497c6040850182620049eb565b50606082015162004991606085018262004a0d565b506080820151620049a66080850182620049eb565b5060a0820151620049bb60a0850182620044fc565b5060c0820151620049d060c085018262004584565b5060e0820151620049e560e08501826200451e565b50505050565b620049f6816200535f565b82525050565b62004a07816200535f565b82525050565b62004a18816200538d565b82525050565b62004a29816200538d565b82525050565b600062004a3c8262004816565b9150819050919050565b600060208201905062004a5d60008301846200450d565b92915050565b600060208201905062004a7a6000830184620044eb565b92915050565b600060408201905062004a9760008301856200450d565b62004aa6602083018462004a1e565b9392505050565b600060608201905062004ac460008301866200450d565b62004ad3602083018562004a1e565b62004ae260408301846200450d565b949350505050565b600060c08201905062004b0160008301896200450d565b62004b10602083018862004a1e565b62004b1f604083018762004a1e565b62004b2e60608301866200450d565b62004b3d60808301856200450d565b62004b4c60a083018462004a1e565b979650505050505050565b60006101008201905062004b6f600083018b6200450d565b62004b7e602083018a62004a1e565b62004b8d604083018962004a1e565b62004b9c606083018862004a1e565b62004bab60808301876200450d565b62004bba60a08301866200450d565b62004bc960c083018562004a1e565b62004bd860e083018462004595565b9998505050505050505050565b600060208201905062004bfc60008301846200452f565b92915050565b600060208201905062004c19600083018462004540565b92915050565b6000602082019050818103600083015262004c3a81620045a6565b9050919050565b6000602082019050818103600083015262004c5c81620045cd565b9050919050565b6000602082019050818103600083015262004c7e81620045f4565b9050919050565b6000602082019050818103600083015262004ca0816200461b565b9050919050565b6000602082019050818103600083015262004cc28162004642565b9050919050565b6000602082019050818103600083015262004ce48162004669565b9050919050565b6000602082019050818103600083015262004d068162004690565b9050919050565b6000602082019050818103600083015262004d2881620046b7565b9050919050565b6000602082019050818103600083015262004d4a81620046de565b9050919050565b6000602082019050818103600083015262004d6c8162004705565b9050919050565b6000602082019050818103600083015262004d8e816200472c565b9050919050565b6000602082019050818103600083015262004db08162004753565b9050919050565b6000602082019050818103600083015262004dd2816200477a565b9050919050565b6000602082019050818103600083015262004df481620047a1565b9050919050565b6000602082019050818103600083015262004e1681620047c8565b9050919050565b6000602082019050818103600083015262004e3881620047ef565b9050919050565b6000602082019050818103600083015262004e5a816200483d565b9050919050565b6000602082019050818103600083015262004e7c8162004864565b9050919050565b6000602082019050818103600083015262004e9e816200488b565b9050919050565b60006101c08201905062004ebd6000830185620048b2565b62004ecc60c083018462004939565b9392505050565b600060208201905062004eea600083018462004a1e565b92915050565b600060408201905062004f07600083018562004a1e565b62004f1660208301846200450d565b9392505050565b600060408201905062004f34600083018562004a1e565b62004f43602083018462004562565b9392505050565b600060408201905062004f61600083018562004a1e565b62004f706020830184620049fc565b9392505050565b600060c08201905062004f8e600083018962004a1e565b62004f9d6020830188620049fc565b62004fac6040830187620049fc565b62004fbb606083018662004a1e565b62004fca6080830185620049fc565b62004fd960a08301846200450d565b979650505050505050565b600060408201905062004ffb600083018562004a1e565b6200500a602083018462004a1e565b9392505050565b600060608201905062005028600083018662004a1e565b62005037602083018562004a1e565b6200504660408301846200450d565b949350505050565b600060608201905062005065600083018662004a1e565b62005074602083018562004a1e565b62005083604083018462004a1e565b949350505050565b600060a082019050620050a2600083018862004a1e565b620050b1602083018762004a1e565b620050c0604083018662004a1e565b620050cf606083018562004551565b620050de608083018462004a1e565b9695505050505050565b6000620050f462005107565b9050620051028282620053fb565b919050565b6000604051905090565b600081905092915050565b600082825260208201905092915050565b60006200513a826200538d565b915062005147836200538d565b9250827fffffffffffffffffffffffffffffffffffffffffffffffffffffffffffffffff038211156200517f576200517e62005431565b5b828201905092915050565b600062005197826200535f565b9150620051a4836200535f565b925082620051b757620051b662005460565b5b828204905092915050565b6000620051cf826200538d565b9150620051dc836200538d565b925082620051ef57620051ee62005460565b5b828204905092915050565b600062005207826200538d565b915062005214836200538d565b9250817fffffffffffffffffffffffffffffffffffffffffffffffffffffffffffffffff048311821515161562005250576200524f62005431565b5b828202905092915050565b600062005268826200538d565b915062005275836200538d565b9250828210156200528b576200528a62005431565b5b828203905092915050565b6000620052a3826200536d565b9050919050565b6000620052b7826200536d565b9050919050565b60008115159050919050565b60007fffffffff0000000000000000000000000000000000000000000000000000000082169050919050565b60008190506200530682620058f0565b919050565b60008190506200531b8262005907565b919050565b600081905062005330826200591e565b919050565b6000819050620053458262005935565b919050565b60008190506200535a826200594c565b919050565b600061ffff82169050919050565b600073ffffffffffffffffffffffffffffffffffffffff82169050919050565b6000819050919050565b6000620053a482620052f6565b9050919050565b6000620053b8826200530b565b9050919050565b6000620053cc8262005320565b9050919050565b6000620053e08262005335565b9050919050565b6000620053f4826200534a565b9050919050565b6200540682620054ed565b810181811067ffffffffffffffff82111715620054285762005427620054be565b5b80604052505050565b7f4e487b7100000000000000000000000000000000000000000000000000000000600052601160045260246000fd5b7f4e487b7100000000000000000000000000000000000000000000000000000000600052601260045260246000fd5b7f4e487b7100000000000000000000000000000000000000000000000000000000600052602160045260246000fd5b7f4e487b7100000000000000000000000000000000000000000000000000000000600052604160045260246000fd5b6000601f19601f8301169050919050565b7f517265646f732e70757263686173654e46543a20496e73756666696369656e7460008201527f2066756e64732100000000000000000000000000000000000000000000000000602082015250565b7f517265646f732e70757263686173654e46543a2061646472657373206973207a60008201527f65726f2061646472657373210000000000000000000000000000000000000000602082015250565b7f4f776e61626c653a206e6577206f776e657220697320746865207a65726f206160008201527f6464726573730000000000000000000000000000000000000000000000000000602082015250565b7f517265646f733a20496e76616c696420657363726f77206f776e657221000000600082015250565b7f517265646f732e70757263686173654e46543a2053656c656374656420706f6f60008201527f6c2063616e27742066756e642070757263686173652100000000000000000000602082015250565b7f496e636f727265637420657468657220616d6f756e7421000000000000000000600082015250565b7f4661696c6564206574686572207472616e7366657220746f20706f6f6c000000600082015250565b7f517265646f733a206c6f616e52657061796d656e7420696e636f6d706c65746560008201527f2100000000000000000000000000000000000000000000000000000000000000602082015250565b7f517265646f732e70757263686173654e46543a20496e76616c6964207072696e60008201527f636970616c210000000000000000000000000000000000000000000000000000602082015250565b7f517265646f733a20507572636861736520496e636f6d706c6574652100000000600082015250565b7f4f776e61626c653a2063616c6c6572206973206e6f7420746865206f776e6572600082015250565b7f517265646f733a2063757272656e746c79207061757365642100000000000000600082015250565b7f517265646f733a2063616e7420726566756e6420626f72726f77657221000000600082015250565b7f517265646f733a20636c61696d20726576657274656421000000000000000000600082015250565b7f4661696c6564206574686572207472616e7366657220746f20454f4100000000600082015250565b7f496e73756666696369656e742065746865722073656e74210000000000000000600082015250565b50565b7f517265646f733a206c69717569646174696f6e20726576657274656421000000600082015250565b7f4661696c6564206574686572207472616e736665720000000000000000000000600082015250565b7f63616c6c65722073686f756c6420626520706f6f6c2063726561746f72210000600082015250565b600281106200590457620059036200548f565b5b50565b600281106200591b576200591a6200548f565b5b50565b600281106200593257620059316200548f565b5b50565b600281106200594957620059486200548f565b5b50565b6005811062005960576200595f6200548f565b5b50565b6200596e8162005296565b81146200597a57600080fd5b50565b6200598881620052be565b81146200599457600080fd5b50565b60028110620059a557600080fd5b50565b60028110620059b657600080fd5b50565b60028110620059c757600080fd5b50565b60028110620059d857600080fd5b50565b60058110620059e957600080fd5b50565b620059f7816200535f565b811462005a0357600080fd5b50565b62005a11816200538d565b811462005a1d57600080fd5b5056fe60e06040523480156200001157600080fd5b5060405162000cfa38038062000cfa833981810160405281019062000037919062000124565b336000806101000a81548173ffffffffffffffffffffffffffffffffffffffff021916908373ffffffffffffffffffffffffffffffffffffffff1602179055508273ffffffffffffffffffffffffffffffffffffffff1660808173ffffffffffffffffffffffffffffffffffffffff1660601b815250508160a081815250508073ffffffffffffffffffffffffffffffffffffffff1660c08173ffffffffffffffffffffffffffffffffffffffff1660601b81525050505050620001ec565b6000815190506200010781620001b8565b92915050565b6000815190506200011e81620001d2565b92915050565b6000806000606084860312156200013a57600080fd5b60006200014a86828701620000f6565b93505060206200015d868287016200010d565b92505060406200017086828701620000f6565b9150509250925092565b600062000187826200018e565b9050919050565b600073ffffffffffffffffffffffffffffffffffffffff82169050919050565b6000819050919050565b620001c3816200017a565b8114620001cf57600080fd5b50565b620001dd81620001ae565b8114620001e957600080fd5b50565b60805160601c60a05160c05160601c610aca62000230600039600081816102ef015261061d0152600081816101ca015261032d015260006105d50152610aca6000f3fe608060405234801561001057600080fd5b50600436106100885760003560e01c80636e553f651161005b5780636e553f65146101295780637ba61ea5146101595780638da5cb5b146101775780639d76ea581461019557610088565b8063150b7a021461008d57806317d70f7c146100bd5780631e83409a146100db578063200d2ed21461010b575b600080fd5b6100a760048036038101906100a291906106dc565b6101b3565b6040516100b49190610896565b60405180910390f35b6100c56101c8565b6040516100d2919061090c565b60405180910390f35b6100f560048036038101906100f091906106b3565b6101ec565b604051610102919061087b565b60405180910390f35b6101136103f6565b60405161012091906108b1565b60405180910390f35b610143600480360381019061013e919061075c565b610409565b604051610150919061087b565b60405180910390f35b6101616105d3565b60405161016e9190610829565b60405180910390f35b61017f6105f7565b60405161018c9190610829565b60405180910390f35b61019d61061b565b6040516101aa9190610829565b60405180910390f35b600063150b7a0260e01b905095945050505050565b7f000000000000000000000000000000000000000000000000000000000000000081565b60008060009054906101000a900473ffffffffffffffffffffffffffffffffffffffff1673ffffffffffffffffffffffffffffffffffffffff163373ffffffffffffffffffffffffffffffffffffffff161461027d576040517f08c379a0000000000000000000000000000000000000000000000000000000008152600401610274906108cc565b60405180910390fd5b600073ffffffffffffffffffffffffffffffffffffffff168273ffffffffffffffffffffffffffffffffffffffff1614156102ed576040517f08c379a00000000000000000000000000000000000000000000000000000000081526004016102e4906108ec565b60405180910390fd5b7f000000000000000000000000000000000000000000000000000000000000000073ffffffffffffffffffffffffffffffffffffffff166342842e0e30847f00000000000000000000000000000000000000000000000000000000000000006040518463ffffffff1660e01b815260040161036a93929190610844565b600060405180830381600087803b15801561038457600080fd5b505af1158015610398573d6000803e3d6000fd5b505050506001600060146101000a81548160ff021916908360018111156103e8577f4e487b7100000000000000000000000000000000000000000000000000000000600052602160045260246000fd5b021790555060019050919050565b600060149054906101000a900460ff1681565b60008060009054906101000a900473ffffffffffffffffffffffffffffffffffffffff1673ffffffffffffffffffffffffffffffffffffffff163373ffffffffffffffffffffffffffffffffffffffff161461049a576040517f08c379a0000000000000000000000000000000000000000000000000000000008152600401610491906108cc565b60405180910390fd5b600073ffffffffffffffffffffffffffffffffffffffff168273ffffffffffffffffffffffffffffffffffffffff16141561050a576040517f08c379a0000000000000000000000000000000000000000000000000000000008152600401610501906108ec565b60405180910390fd5b8173ffffffffffffffffffffffffffffffffffffffff166342842e0e3330866040518463ffffffff1660e01b815260040161054793929190610844565b600060405180830381600087803b15801561056157600080fd5b505af1158015610575573d6000803e3d6000fd5b5050505060008060146101000a81548160ff021916908360018111156105c4577f4e487b7100000000000000000000000000000000000000000000000000000000600052602160045260246000fd5b02179055506001905092915050565b7f000000000000000000000000000000000000000000000000000000000000000081565b60008054906101000a900473ffffffffffffffffffffffffffffffffffffffff1681565b7f000000000000000000000000000000000000000000000000000000000000000081565b60008135905061064e81610a66565b92915050565b60008083601f84011261066657600080fd5b8235905067ffffffffffffffff81111561067f57600080fd5b60208301915083600182028301111561069757600080fd5b9250929050565b6000813590506106ad81610a7d565b92915050565b6000602082840312156106c557600080fd5b60006106d38482850161063f565b91505092915050565b6000806000806000608086880312156106f457600080fd5b60006107028882890161063f565b95505060206107138882890161063f565b94505060406107248882890161069e565b935050606086013567ffffffffffffffff81111561074157600080fd5b61074d88828901610654565b92509250509295509295909350565b6000806040838503121561076f57600080fd5b600061077d8582860161069e565b925050602061078e8582860161063f565b9150509250929050565b6107a181610938565b82525050565b6107b08161094a565b82525050565b6107bf81610956565b82525050565b6107ce816109bf565b82525050565b60006107e1601c83610927565b91506107ec82610a00565b602082019050919050565b6000610804602083610927565b915061080f82610a29565b602082019050919050565b610823816109b5565b82525050565b600060208201905061083e6000830184610798565b92915050565b60006060820190506108596000830186610798565b6108666020830185610798565b610873604083018461081a565b949350505050565b600060208201905061089060008301846107a7565b92915050565b60006020820190506108ab60008301846107b6565b92915050565b60006020820190506108c660008301846107c5565b92915050565b600060208201905081810360008301526108e5816107d4565b9050919050565b60006020820190508181036000830152610905816107f7565b9050919050565b6000602082019050610921600083018461081a565b92915050565b600082825260208201905092915050565b600061094382610995565b9050919050565b60008115159050919050565b60007fffffffff0000000000000000000000000000000000000000000000000000000082169050919050565b600081905061099082610a52565b919050565b600073ffffffffffffffffffffffffffffffffffffffff82169050919050565b6000819050919050565b60006109ca82610982565b9050919050565b7f4e487b7100000000000000000000000000000000000000000000000000000000600052602160045260246000fd5b7f4f776e61626c653a2063616c6c6572206973206e6f74206f776e657200000000600082015250565b7f457363726f773a2061646472657373206973207a65726f206164647265737321600082015250565b60028110610a6357610a626109d1565b5b50565b610a6f81610938565b8114610a7a57600080fd5b50565b610a86816109b5565b8114610a9157600080fd5b5056fea264697066735822122000ca111bc8d3a7cc6b89be7f6ffc9cb4844ec6d2f91760019cc5f2b67fdb181564736f6c63430008010033a264697066735822122097dde47f7ecedc0e2f2d6dbda139dddd107b5d83fcce2f0c03e07b37dd79d30164736f6c63430008010033",
  "linkReferences": {},
  "deployedLinkReferences": {}
}